S01700004763634170706C69636174696F6E312E737265635B
S11300000C943B000C9458000C9458000C94580029
S11300100C9458000C9458000C9458000C945800FC
S11300200C9458000C9458000C9458000C945800EC
S11300300C9458000C9458000C943B030C945800F6
S11300400C9458000C9458000C9490050C94AE0435
S11300500C9458000C9458000C9458000C945800BC
S11300600C9458000C9458008A028C028E0282026E
S113007084028602880211241FBECFEFD8E0DEBFBF
S1130080CDBF15E0A0E0B1E0E6E4FDE002C00590DC
S11300900D92A238B107D9F727E0A2E8B5E001C074
S11300A01D92AC3BB207E1F70E946B030C94A106CE
S11300B00C940000809101019091020108958093B5
S11300C08205E82FF0E0EE0FFF1FED5FFE4F808109
S11300D091819093840580938305089590938C0572
S11300E080938B05089590938605809385050895E4
S11300F080918B0590918C0508959C014091850514
S113010050918605452B21F0909100019111F6CF75
S113011070938C0560938B05E0E8F0E08081806447
S1130120808340E050E060E072E18AE790E00E9462
S1130130340621503109309389002093880081E0EE
S113014090E09093860580938505089510920001B0
S11301501092860510928505E0E8F0E080818F7B9F
S113016080830895FF920F93CF93DF9381E0809370
S11301700001E0918205F0E0EE0FFF1FED5FFE4FFE
S113018080819181909384058093830584E080939A
S11301908A058FE390E0909389058093880586E033
S11301A080938D0505C03196F0938405E093830513
S11301B0E0918305F091840580818A3321F0809158
S11301C000018111F0CF3196F0938405E09383050B
S11301D051C1843609F05CC010928A053196F093BF
S11301E08405E093830505C03196F0938405E0937C
S11301F08305E0918305F091840580818D3351F46A
S1130200809100018111F0CF05C03196F0938405EF
S1130210E0938305E0918305F09184058081803229
S113022021F4909100019111F0CF80538A3010F4A1
S113023080938A059F012F5F3F4F3093840520935D
S11302408305818190ED980F9A30B8F490918A05D6
S1130250990F492F440F440F940F890F80538093B3
S11302608A052F5F3F4F309384052093830505C093
S11302703196F0938405E0938305E0918305F09132
S1130280840580818C3221F4809100018111F0CFAA
S1130290E0918305F091840580818F3609F044C094
S11302A010928D053196F0938405E093830505C083
S11302B03196F0938405E0938305E0918305F091F2
S11302C0840580818D3351F4809100018111F0CF38
S11302D005C03196F0938405E0938305E09183058E
S11302E0F09184058081803221F490910001911174
S11302F0F0CF80538A3010F480938D053196F093BB
S11303008405E093830505C03196F0938405E0935A
S11303108305E0918305F091840580818C3221F47A
S1130320809100018111F0CFE0918305F091840563
S11303308081823609F093C0109289051092880555
S11303403196F0938405E093830505C03196F093CC
S11303508405E0938305E0918305F0918405808111
S11303608D3351F4809100018111F0CF05C0319695
S1130370F0938405E0938305E0918305F09184056F
S11303808081803221F4909100019111F0CF90EDA1
S1130390980F9A3030F490E0C09790938905809339
S11303A08805DF011196B0938405A09383054181EC
S11303B080ED840F8A3008F041C020918805309187
S11303C08905C901880F991F220F331F220F331F7C
S11303D0220F331F820F931F840F911DC097909398
S11303E08905809388059D012F5F3F4F30938405D5
S11303F02093830511964C9150ED540F5A30F0F42C
S1130400BC01660F771F880F991F880F991F880FEB
S1130410991F860F971F840F911DC097909389058C
S1130420809388052F5F3F4F309384052093830585
S113043005C03196F0938405E0938305E09183052C
S1130440F091840580818C3251F4809100018111F6
S1130450F0CF05C03196F0938405E0938305E091D5
S11304608305F091840580818C3221F48091000110
S11304708111F0CFE0918305F091840580818A3366
S113048021F0909100019111A4CE3196F09384054E
S1130490E0938305E0C0C0918D0500918A058053E7
S11304A08A30E0F4AF014F5F5F4F5093840540936F
S11304B08305918120ED290F2A3078F4880F082FC5
S11304C0000F000F800F082F090F00534F5F5F4F7D
S11304D0509384054093830501C0082F2091830520
S11304E030918405D901EC918E2F90E0FC01E15606
S11304F0F109E730F10520F4EC5CFF4F0C9453064E
S1130500DFEF0DC0D2E00BC0D4E009C0D5E007C0D6
S1130510D7E005C0D9E003C0DBE001C0D0E0C901E9
S113052001969093840580938305F90121812332F8
S113053031F4DF5F01969093840580938305E09105
S11305408305F091840580818E3241F43196F093D5
S11305508405E0938305FF24F39401C0F12CE0911A
S11305608305F0918405808180538A3030F431967C
S1130570F0938405E0938305C82FE0918305F091FF
S1130580840580818E3269F43196F0938405E0937A
S11305908305FF24F39405C03196F0938405E0931A
S11305A08305E0918305F091840580818C3221F4E8
S11305B0809100018111F0CF209188053091890547
S11305C040E050E060E67AEE80E090E00E9434067D
S11305D0CA01B901202F30E040E050E00E94340607
S11305E0220F331F220F331FFF2039F0B901660F8A
S11305F0771F260F371F36952795DF3FC1F08C2FC5
S113060090E00497FC01EE0FFF1FE80FF91FEE0FB7
S1130610FF1FEE0FFF1FED0FF11DEE0FFF1FE75F32
S1130620FE4FB901808191810E947D000AC0309300
S11306308C0520938B0581E090E090938605809350
S113064085058091850590918605892B21F08091FF
S113065000018111F6CFE0918305F091840580813A
S1130660882321F090910001911115CFDF91CF9152
S11306700F91FF9008951F920F920FB60F921124BD
S11306802F933F934F935F936F937F938F939F9396
S1130690AF93BF93EF93FF930E947800009721F0EC
S11306A001970E946E0006C01092800080E090E0E6
S11306B00E947300FF91EF91BF91AF919F918F9131
S11306C07F916F915F914F913F912F910F900FBE4A
S11306D00F901F90189588EF87BD82E084BD93E04A
S11306E095BD80936E00E0E8F0E0808180648083B3
S11306F0E1E8F0E080818960808384B1826084B91C
S11307000E94F40487E690E00E9486040E9490040C
S11307100E94A2040E94A8040E94B3030E94A203A0
S113072078940E9452050197E1F780E090E00E94DE
S113073055050E9462047894F4CF0E945A000E94E6
S11307407505089584E195E00E9475058AED94E0AD
S11307500E94750589E994E00E94750583E694E09A
S11307600E947505089584E495E00E9475050E9431
S11307709D0381E694E00E9475058AEC93E00E9453
S113078075050895CF92DF92EF92FF920F931F9316
S1130790CF93DF938C017B01C0E0D0E00AC06E01EF
S11307A09FEFC91AD90ACE0DDF1D88830E94360532
S11307B0E601F801EA59FF4F0190F081E02DE00FC6
S11307C0F11F80818D3059F70E9436050E9436054D
S11307D0CE0DDF1D1882DF91CF911F910F91FF90F5
S11307E0EF90DF90CF9008950F931F93CF93DF93F3
S11307F000D0CDB7DEB78C0164ED73E00E948A06A9
S1130800892B39F489ED93E00E9475050E94B200AA
S113081052C067EE73E0C8010E948A06892B39F43E
S11308200E94A6008CEE93E00E94750544C043E04C
S113083050E06AEF73E0C8010E949306892B19F512
S1130840F80183818032D1F48581811117C01A8225
S113085019828481898310ED180F8EEF93E00E9432
S11308600B06CE0101960E94750581E694E00E9474
S11308707505812F90E00E945F001DC08EE094E01A
S11308800E94750518C063E374E0C8010E948A06DB
S1130890892B69F489E394E00E9475050E94A600FF
S11308A080E090E00E945F000E94A20304C08BE4F9
S11308B094E00E9475050F900F90DF91CF911F91E6
S11308C00F910895CF93DF93CDB7DEB7C456D10906
S11308D00FB6F894DEBF0FBECDBF0E940D05BE015A
S11308E06F5F7F4F0E94C203CE0101960E9475057F
S11308F0CE0101960E94F403CC59DF4F0FB6F89451
S1130900DEBF0FBECDBFDF91CF9108951092C1001D
S113091096E09093C2001092C5008093C40008959D
S1130920E1ECF0E08081886080830895E1ECF0E000
S11309308081806280830895E1ECF0E080818F7D86
S113094080830895E1ECF0E08081806180830895E4
S1130950E1ECF0E080818068808308951F920F921B
S11309600FB60F9211242F933F934F935F936F937E
S11309707F938F939F93AF93BF93EF93FF932091B4
S1130980520730915307C90162EC71E00E942006BE
S113099040915007509151078417950719F40E940C
S11309A09C0411C0F901E257FA4F80818093C6007C
S11309B0E2E5F7E080819181019662EC71E00E94AA
S11309C0200691838083FF91EF91BF91AF919F9116
S11309D08F917F916F915F914F913F912F910F90E4
S11309E00FBE0F901F901895109251071092500748
S11309F010925307109252071092B9071092B80739
S1130A001092BB071092BA070895E091BA07F091CB
S1130A10BB07EC5AF84F8081089584E597E0089568
S1130A20E091B807F091B9078091C600EC5AF84FED
S1130A3080830895E8EBF7E0408151814F5F5F4F79
S1130A409A013695279536952795ABE7B4E10E9430
S1130A5059069695879564E6689F9001699F300DC5
S1130A601124421B530B518340830895EAEBF7E0B2
S1130A70408151814F5F5F4F9A0136952795369596
S1130A802795ABE7B4E10E9459069695879564E6ED
S1130A90689F9001699F300D1124421B530B5183B1
S1130AA0408308958091870508958093870508956C
S1130AB0482F2091500730915107C901019662ECEB
S1130AC071E00E94200660915207709153078617C7
S1130AD0970751F0F901E257FA4F40839093510779
S1130AE0809350070E94960408950F931F93CF9309
S1130AF08C01C0E003C00E945805CF5FF801EC0FE1
S1130B00F11D80818111F7CF8DE00E9458058AE0A4
S1130B100E9458050E949604CF911F910F91089549
S1130B201F920F920FB60F9211242F933F934F935E
S1130B305F936F937F938F939F93AF93BF93EF9341
S1130B40FF93CF93DF93CDB7DEB7C456D109DEBF91
S1130B50CDBF0E941005E091B807F091B907EC5A97
S1130B60F84F80818A30D9F581E0809387050E940F
S1130B700505833511F0823591F50E940D05BE01FE
S1130B806F5F7F4F0E94C203CE0101960E947505DC
S1130B9067EE73E0CE0101960E948A06892B49F420
S1130BA00E94A6008CEE93E00E94750510928705C2
S1130BB016C063E374E0CE0101960E948A06892B75
S1130BC071F489E394E00E9475050E94A60080E018
S1130BD090E00E945F000E94A203109287050E9489
S1130BE01A05CC59DF4F0FB6F894DEBF0FBECDBF48
S1130BF0DF91CF91FF91EF91BF91AF919F918F9131
S1130C007F916F915F914F913F912F910F900FBE04
S1130C100F901F9018950F931F93CF938C01C0E0F2
S1130C2003C00E945805CF5FF801EC0FF11D8081CD
S1130C308111F7CF0E949604CF911F910F910895CF
S1130C40AA1BBB1B51E107C0AA1FBB1FA617B707EE
S1130C5010F0A61BB70B881F991F5A95A9F780950A
S1130C609095BC01CD010895052E97FB1EF40094C8
S1130C700E944B0657FD07D00E94680607FC03D06C
S1130C804EF40C944B0650954095309521953F4F6A
S1130C904F4F5F4F089590958095709561957F4F64
S1130CA08F4F9F4F0895EE0FFF1F0590F491E02D95
S1130CB00994A29FB001B39FC001A39F700D811D31
S1130CC01124911DB29F700D811D1124911D089551
S1130CD0A1E21A2EAA1BBB1BFD010DC0AA1FBB1F3C
S1130CE0EE1FFF1FA217B307E407F50720F0A21BAE
S1130CF0B30BE40BF50B661F771F881F991F1A941B
S1130D0069F760957095809590959B01AC01BD0144
S1130D10CF010895FB01DC018D9101908019011030
S1130D20D9F3990B0895FB01DC014150504030F098
S1130D308D910190801919F40020B9F7881B990B43
S1090D400895F894FFCFB2
S1130D460169019F010C02DF020601150126013724
S1130D56014A015D01720188019F01B801D201EEC9
S1130D66010B022A024B026E029302BA02E402103B
S1130D76033E037003A403DC03170455049704DC41
S1130D860427057505C80520067C06E0064907B84C
S1130D96072D08AA082D09B9094D0AEA0A900B403D
S1130DA60CF80CC00D900E6F0F303A205468655342
S1130DB6696D70736F6E730A313A204D6973736986
S1130DC66F6E496D700A323A204261746D616E0A23
S1130DD6333A2050696E6B70616E746865720054A4
S1130DE6686553696D70736F6E733A643D342C6F26
S1130DF63D352C623D3136303A632E362C65362C21
S1130E066623362C3861362C672E362C65362C63D1
S1130E16362C38612C3866232C3866232C38662306
S1130E262C32672C38702C38702C3866232C386694
S1130E36232C3866232C38672C61232E2C386336F2
S1130E462C3863362C3863362C6336004D6973733D
S1130E56696F6E496D703A643D342C6F3D362C6271
S1130E663D3135303A313664352C31366423352CF0
S1130E76313664352C31366423352C313664352CC1
S1130E8631366423352C313664352C313664352CB1
S1130E9631366423352C313665352C313666352C9E
S1130EA631366623352C313667352C3867352C3484
S1130EB6702C3867352C34702C386123352C3870F7
S1130EC62C3863362C38702C3867352C34702C3813
S1130ED667352C34702C3866352C38702C38702CC9
S1130EE63867352C34702C34702C386123352C3803
S1130EF6702C3863362C38702C3867352C34702CAB
S1130F0634702C3866352C38702C386623352C38DA
S1130F16702C386123352C3867352C316435004202
S1130F2661746D616E3A643D382C6F3D352C623DBB
S1130F363136303A3136612C313667232C313667F7
S1130F462C313666232C3136662C313666232C3109
S1130F5636672C313667232C34612E2C702C642C86
S1130F66642C63232C63232C632C632C63232C6350
S1130F76232C642C642C63232C63232C632C632C76
S1130F8663232C63232C642C642C63232C63232C6F
S1130F96632C632C63232C63232C67362C702C342C
S1130FA6673650696E6B70616E746865723A643D3B
S1130FB631362C6F3D352C623D3136303A38642358
S1130FC62C38652C32702C3866232C38672C3270FA
S1130FD62C3864232C38652C702C3866232C3867FF
S1130FE62C702C3863362C38622C702C3864232CE5
S1130FF638652C702C38622C3261232C32702C61AB
S11310062C672C652C642C326500436F6D616E640D
S11310166F733A00504C415900506C6179696E67A0
S113102620736F6E670A0053544F500053746F70E9
S113103670656420736F6E670A004E554D00536FDA
S11310466E672073656C65637465643A2000436F4C
S11310566D6D616E642075736167653A204E554DFA
S1131066205B6E756D626572206F6620736F6E67A6
S11310765D0A00524553455400524553455454495C
S11310864E472073797374656D0A00436F6D616E04
S1131096646F206E6F20656E636F6E747261646F29
S11310A60D0A00202020203D3D3E20524553455444
S11310B63A205265696E6963696120656C207369BB
S11310C67374656D6120616C2065737461646F204F
S11310D6696E696369616C0A00202020203D3D3EEB
S11310E6204E554D3A204E756D65726F206465200D
S11310F663616E63696F6E20612073656C656363FB
S1131106696F6E6172206465206C61206C6973740A
S113111661205B312061204E5D00202020203D3D72
S11311263E2053544F503A2044657469656E6520D9
S11311366C6120726570726F64756363696F6E208B
S113114664656C20736F6E69646F20656E206375C9
S113115672736F00202020203D3D3E20504C4159A3
S11311663A20526570726F64756365206C61206302
S1131176616E63696F6E2073656C656363696F6E18
S1131186616461004269656E76656E69646F2061AB
S11311966C2073656C6563746F7220646520726974
S11311A66E67746F6E6573212043616E63696F6E3B
S11311B6657320646973706F6E69626C65733A2037
S10511C60A0019
S9030000FC
