S01700004763634170706C69636174696F6E312E737265635B
S11300000C943B000C9458000C9458000C94580029
S11300100C9458000C9458000C9458000C945800FC
S11300200C9458000C9458000C9458000C945800EC
S11300300C9458000C9458000C9424030C9458000D
S11300400C9458000C9458000C94D7040C94A505F7
S11300500C9458000C9458000C9458000C945800BC
S11300600C9458000C9458007302750277026B02CA
S11300706D026F02710211241FBECFEFD8E0DEBF04
S1130080CDBF14E0A0E0B1E0E8EDFCE002C00590D3
S11300900D92A83BB107D9F727E0A8EBB4E001C063
S11300A01D92AB3EB207E1F70E9454030C946A061A
S11300B00C940000E82FF0E0EE0FFF1FEF5FFE4FFF
S11300C0808191819093BE048093BD0408959093A0
S11300D0C1048093C00408959093B9048093B80434
S11300E008958091C0049091C10408959C014091A9
S11300F0B8045091B904452B21F09091000191115D
S1130100F6CF7093C1046093C004E0E8F0E080810E
S11301108064808340E050E060E072E18AE790E030
S11301200E94D7052150310930938900209388001B
S113013081E090E09093B9048093B80408951092FC
S113014000011092B9041092B804E0E8F0E0808154
S11301508F7B80830895FF920F93CF93DF9384E086
S11301608093BF048FE390E09093BC048093BB041E
S113017086E08093C20405C03196F093BE04E093F8
S1130180BD04E091BD04F091BE0480818A3321F066
S1130190809100018111F0CF3196F093BE04E09379
S11301A0BD0451C1843609F05CC01092BF0431967D
S11301B0F093BE04E093BD0405C03196F093BE04F1
S11301C0E093BD04E091BD04F091BE0480818D33C1
S11301D051F4809100018111F0CF05C03196F09364
S11301E0BE04E093BD04E091BD04F091BE0480819F
S11301F0803221F4909100019111F0CF80538A3024
S113020010F48093BF049F012F5F3F4F3093BE04CF
S11302102093BD04818190ED980F9A30B8F49091A9
S1130220BF04990F492F440F440F940F890F805333
S11302308093BF042F5F3F4F3093BE042093BD04CF
S113024005C03196F093BE04E093BD04E091BD0473
S1130250F091BE0480818C3221F4809100018111DF
S1130260F0CFE091BD04F091BE0480818F3609F097
S113027044C01092C2043196F093BE04E093BD04CE
S113028005C03196F093BE04E093BD04E091BD0433
S1130290F091BE0480818D3351F48091000181116D
S11302A0F0CF05C03196F093BE04E093BD04E09115
S11302B0BD04F091BE048081803221F4909100014C
S11302C09111F0CF80538A3010F48093C204319698
S11302D0F093BE04E093BD0405C03196F093BE04D0
S11302E0E093BD04E091BD04F091BE0480818C32A2
S11302F021F4809100018111F0CFE091BD04F091CF
S1130300BE048081823609F093C01092BC0410921E
S1130310BB043196F093BE04E093BD0405C031964E
S1130320F093BE04E093BD04E091BD04F091BE04DB
S113033080818D3351F4809100018111F0CF05C08B
S11303403196F093BE04E093BD04E091BD04F091B6
S1130350BE048081803221F4909100019111F0CF8C
S113036090ED980F9A3030F490E0C0979093BC04CD
S11303708093BB04DF011196B093BE04A093BD0427
S1130380418180ED840F8A3008F041C02091BB0484
S11303903091BC04C901880F991F220F331F220F0B
S11303A0331F220F331F820F931F840F911DC09799
S11303B09093BC048093BB049D012F5F3F4F309307
S11303C0BE042093BD0411964C9150ED540F5A3045
S11303D0F0F4BC01660F771F880F991F880F991FCF
S11303E0880F991F860F971F840F911DC0979093B4
S11303F0BC048093BB042F5F3F4F3093BE04209313
S1130400BD0405C03196F093BE04E093BD04E091B1
S1130410BD04F091BE0480818C3251F480910001BE
S11304208111F0CF05C03196F093BE04E093BD0472
S1130430E091BD04F091BE0480818C3221F480915E
S113044000018111F0CFE091BD04F091BE048081E0
S11304508A3321F0909100019111A4CE3196F0934A
S1130460BE04E093BD04E0C0C091C2040091BF0487
S113047080538A30E0F4AF014F5F5F4F5093BE0466
S11304804093BD04918120ED290F2A3078F4880F20
S1130490082F000F000F800F082F090F00534F5F24
S11304A05F4F5093BE044093BD0401C0082F2091B8
S11304B0BD043091BE04D901EC918E2F90E0FC0173
S11304C0E156F109E730F10520F4EC5CFF4F0C94A0
S11304D0F605DFEF0DC0D2E00BC0D4E009C0D5E0D3
S11304E007C0D7E005C0D9E003C0DBE001C0D0E01D
S11304F0C90101969093BE048093BD04F901218142
S1130500233231F4DF5F01969093BE048093BD04DF
S1130510E091BD04F091BE0480818E3241F43196A5
S1130520F093BE04E093BD04FF24F39401C0F12CC6
S1130530E091BD04F091BE04808180538A3030F490
S11305403196F093BE04E093BD04C82FE091BD043E
S1130550F091BE0480818E3269F43196F093BE042A
S1130560E093BD04FF24F39405C03196F093BE04D8
S1130570E093BD04E091BD04F091BE0480818C320F
S113058021F4809100018111F0CF2091BB043091BE
S1130590BC0440E050E060E67AEE80E090E00E9427
S11305A0D705CA01B901202F30E040E050E00E9495
S11305B0D705220F331F220F331FFF2039F0B90153
S11305C0660F771F260F371F36952795DF3FC1F03B
S11305D08C2F90E00497FC01EE0FFF1FE80FF91F2A
S11305E0EE0FFF1FEE0FFF1FED0FF11DEE0FFF1FAC
S11305F0E95FFE4FB901808191810E9476000AC0B3
S11306003093C1042093C00481E090E09093B90436
S11306108093B8048091B8049091B904892B21F097
S1130620809100018111F6CFE091BD04F091BE04E8
S11306308081882321F090910001911115CFDF91E1
S1130640CF910F91FF9008951F920F920FB60F92C2
S113065011242F933F934F935F936F937F938F93C3
S11306609F93AF93BF93EF93FF930E947100009702
S113067021F001970E94670006C01092800080E07C
S113068090E00E946C00FF91EF91BF91AF919F9118
S11306908F917F916F915F914F913F912F910F9027
S11306A00FBE0F901F90189588EF87BD82E084BD20
S11306B093E095BD80936E00E0E8F0E08081806473
S11306C08083E1E8F0E080818960808384B1826086
S11306D084B90E94870487E60E945F040E9469042B
S11306E00E947B040E94810478940E9495030E94D6
S11306F084030E9449058130E1F780E00E944C05A3
S11307000E943B047894F5CF82E594E00E946B0547
S113071080E294E00E946B0587EE93E00E946B05F3
S113072089EB93E00E946B0508958AE794E00E94A8
S11307306B050895CF92DF92EF92FF920F931F9370
S1130740CF93DF938C017B01C0E0D0E00AC06E013F
S11307509FEFC91AD90ACE0DDF1D88830E940905AF
S1130760E601F801EE56FE4F0190F081E02DE00F16
S1130770F11F80818D3059F70E9409050E940905F7
S1130780CE0DDF1D1882DF91CF911F910F91FF9045
S1130790EF90DF90CF9008950F931F93CF93DF9343
S11307A000D0CDB7DEB78C016BE273E00E944B063C
S11307B0892B39F480E393E00E946B050E94AB001F
S11307C053C06EE373E0C8010E944B06892B39F4D1
S11307D00E949F0083E493E00E946B0545C043E0C0
S11307E050E061E573E0C8010E945406892B29F5A5
S11307F0F80183818032E1F48581811119C014816B
S1130800812F90E00E942D06082F1A8219821983E5
S113081085E593E00E948405CE0101960E946B0554
S113082087EB93E00E946B05802F0E945A001CC046
S113083085E693E00E946B0517C069E873E0C80180
S11308400E944B06892B61F48FE893E00E946B05AC
S11308500E949F0081E00E945A000E94840304C009
S113086081EA93E00E946B050F900F90DF91CF9186
S11308701F910F910895CF93DF93CDB7DEB7C05981
S1130880D1400FB6F894DEBF0FBECDBF0E949E04C8
S1130890BE016F5F7F4F0E949A03CE0101960E94B2
S11308A06B05CE0101960E94CC03C057DE4F0FB6F4
S11308B0F894DEBF0FBECDBFDF91CF9108951092A3
S11308C0C10096E09093C2001092C5008093C400CA
S11308D00895E1ECF0E08081886080830895E1EC84
S11308E0F0E08081806280830895E1ECF0E0808113
S11308F08F7D80830895E1ECF0E0808180618083C6
S11309000895E1ECF0E0808180688083089510927E
S113091054061092530610925606109255061092E1
S1130920E8071092E7071092EA071092E907089582
S1130930E82FF0E0ED53FB4F8081089587E596E0C2
S11309400895E091E707F091E8078091C600E95A1D
S1130950F94F8083089580915506089510925606A4
S11309601092550610925406109253060895E7EE1D
S1130970F7E0408151814F5F5F4F9A013295229594
S11309802F7023273F702327AEE3BAE00E94FC05B3
S113099020E931E0BC01629FC001639F900D729F0A
S11309A0900D1124481B590B5183408308951F92C5
S11309B00F920FB60F9211242F933F934F935F938F
S11309C06F937F938F939F93AF93BF93EF93FF9313
S11309D00E94A104E091E707F091E807E95AF94F72
S11309E080818A3019F481E08093BA040E94B704AC
S11309F0FF91EF91BF91AF919F918F917F916F91F3
S1130A005F914F913F912F910F900FBE0F901F90C8
S1130A101895E9EEF7E0408151814F5F5F4F9A01ED
S1130A20329522952F7023273F702327AEE3BAE037
S1130A300E94FC0520E931E0BC01629FC001639F74
S1130A40900D729F900D1124481B590B51834083C4
S1130A500895E5E5F6E0408151814F5F5F4F9A01CB
S1130A60329522952F7023273F702327AEE3BAE0F7
S1130A700E94FC0520E931E0BC01629FC001639F34
S1130A80900D729F900D1124481B590B5183408384
S1130A9008958091BA0408958093BA040895CF9379
S1130AA020915306309154062039314088F4C82FE0
S1130AB00E947504E3E5F6E080819181DC01AD5389
S1130AC0BB4FCC930196918380830E946F0401C035
S1130AD08FEFCF9108950F931F93CF938C01C0E0B4
S1130AE003C00E944F05CF5FF801EC0FF11D808118
S1130AF08111F7CF8DE00E944F058AE00E944F05D7
S1130B00CF911F910F9108950F931F93CF938C0151
S1130B10C0E003C00E944F05CF5FF801EC0FF11D48
S1130B2080818111F7CFCF911F910F91089540914A
S1130B30550650915606209153063091540681E093
S1130B404217530708F080E008951F920F920FB6E2
S1130B500F9211242F933F934F935F936F937F933F
S1130B608F939F93AF93BF93EF93FF930E94AB0434
S1130B700E9498048093C6000E9429050E9497054C
S1130B80811104C00E94AE040E947504FF91EF918C
S1130B90BF91AF919F918F917F916F915F914F9191
S1130BA03F912F910F900FBE0F901F901895052E17
S1130BB097FB1EF400940E94EE0557FD07D00E9497
S1130BC00B0607FC03D04EF40C94EE0550954095AB
S1130BD0309521953F4F4F4F5F4F089590958095E5
S1130BE0709561957F4F8F4F9F4F0895EE0FFF1FB4
S1130BF00590F491E02D0994A29FB001B39FC00128
S1130C00A39F700D811D1124911DB29F700D811D34
S1130C101124911D0895A1E21A2EAA1BBB1BFD01EC
S1130C200DC0AA1FBB1FEE1FFF1FA217B307E407C7
S1130C30F50720F0A21BB30BE40BF50B661F771F1F
S1130C40881F991F1A9469F76095709580959095FF
S1130C509B01AC01BD01CF010895FC0188279927B0
S1130C60E89421912032E9F3293010F02E30C8F3B2
S1130C702B3241F02D3239F4689404C00E9462068C
S1130C80820F911D219120532A30C0F31EF49095B8
S1130C9081959F4F0895FB01DC018D91019080198E
S1130CA00110D9F3990B0895FB01DC014150504028
S1130CB030F08D910190801919F40020B9F7881B48
S1130CC0990B08957AE0979F902D879F802D910D21
S10B0CD011240895F894FFCFEC
S1130CD8016701D401A70206011501260137014A5B
S1130CE8015D01720188019F01B801D201EE010B77
S1130CF8022A024B026E029302BA02E40210033E75
S1130D08037003A403DC03170455049704DC0427C5
S1130D18057505C80520067C06E0064907B8072DB1
S1130D2808AA082D09B9094D0AEA0A900B400CF8DB
S1130D380CC00D900E6F0F54686553696D70736F16
S1130D486E733A643D342C6F3D352C623D31363038
S1130D583A632E362C65362C6623362C3861362CAD
S1130D68672E362C65362C63362C38612C3866236E
S1130D782C3866232C3866232C32672C38702C3890
S1130D88702C3866232C3866232C3866232C386755
S1130D982C61232E2C3863362C3863362C38633672
S1130DA82C6336004D697373696F6E496D703A64CC
S1130DB83D342C6F3D362C623D3135303A31366442
S1130DC8352C31366423352C313664352C31366470
S1130DD823352C313664352C31366423352C3136A1
S1130DE864352C313664352C31366423352C313650
S1130DF865352C313666352C31366623352C31363B
S1130E0867352C3867352C34702C3867352C34709A
S1130E182C386123352C38702C3863362C38702CD8
S1130E283867352C34702C3867352C34702C386678
S1130E38352C38702C38702C3867352C34702C3499
S1130E48702C386123352C38702C3863362C387064
S1130E582C3867352C34702C34702C3866352C3883
S1130E68702C386623352C38702C386123352C388F
S1130E7867352C316435004261746D616E3A643DA6
S1130E88382C6F3D352C623D3136303A3136612C81
S1130E98313667232C3136672C313666232C3136AC
S1130EA8662C313666232C3136672C313667232C71
S1130EB834612E2C702C642C642C63232C63232C17
S1130EC8632C632C63232C63232C642C642C6323EE
S1130ED82C63232C632C632C63232C63232C642C16
S1130EE8642C63232C63232C632C632C63232C63CF
S1130EF8232C67362C702C34673600504C4159002B
S1130F08506C6179696E6720736F6E670A00535479
S1130F184F500053746F7070656420736F6E670A66
S1130F28004E554D00536F6E672073656C6563748E
S1130F3865643A2000436F6D6D616E64207573615A
S1130F4867653A204E554D205B6E756D626572205B
S1130F586F6620736F6E675D0052455345540052A7
S1130F684553455454494E472073797374656D0A43
S1130F7800436F6D616E646F206E6F20656E636FE2
S1130F886E747261646F0D0A0052455345543A20D9
S1130F985265696E6963696120656C20736973744D
S1130FA8656D6120616C2065737461646F20696E7E
S1130FB8696369616C0A004E554D3A204E756D653A
S1130FC8726F2064652063616E63696F6E206120AF
S1130FD873656C656363696F6E6172206465206C08
S1130FE861206C69737461205B312061204E5D005F
S1130FF853544F503A2044657469656E65206C619A
S113100820726570726F64756363696F6E206465BE
S11310186C20736F6E69646F20656E2063757273DC
S11310286F00504C41593A20526570726F64756371
S113103865206C612063616E63696F6E2073656CF3
S1131048656363696F6E616461004269656E7665A4
S11310586E69646F20616C2073656C6563746F726C
S11310682064652072696E67746F6E65732120430E
S1131078616E63696F6E657320646973706F6E69FE
S10B1088626C65733A200A0052
S9030000FC
