S01700004763634170706C69636174696F6E312E737265635B
S11300000C94D3000C94F0000C94F0000C94F000C9
S11300100C94F0000C94F0000C94F0000C94F0009C
S11300200C94F0000C94F0000C94F0000C94F0008C
S11300300C94F0000C94F0000C94AF050C94F000B8
S11300400C94F0000C94F0000C9464060C9480075B
S11300500C94F0000C94F0000C94F0000C94F0005C
S11300600C94F0000C94F000FA02FE02E702EA029B
S1130070EE02F202F6020503050305030503050378
S11300800503050305030203202020203D3D3E20F7
S113009052455345543A205265696E69636961203B
S11300A0656C2073697374656D6120616C20657380
S11300B07461646F20696E696369616C0A00202051
S11300C020203D3D3E204E554D3A204E756D6572C3
S11300D06F2064652063616E63696F6E20612073B5
S11300E0656C656363696F6E6172206465206C6121
S11300F0206C69737461205B312061204E5D0020A7
S11301002020203D3D3E2053544F503A20446574F6
S113011069656E65206C6120726570726F647563C9
S113012063696F6E2064656C20736F6E69646F2001
S1130130656E20637572736F00202020203D3D3E64
S113014020504C41593A20526570726F6475636552
S1130150206C612063616E63696F6E2073656C65EA
S11301606363696F6E61646100436F6D616E646F98
S1130170733A0043616E63696F6E65733A00426956
S1130180656E76656E69646F20616C2073656C655D
S113019063746F722064652072696E67746F6E6534
S11301A07321200A000011241FBECFEFD8E0DEBF68
S11301B0CDBF15E0A0E0B1E0EAE5F0E102C00590B2
S11301C00D92AA33B107D9F728E0AAE3B5E001C03C
S11301D01D92A231B207E1F70E9404040C942B088B
S11301E00C94000040913C0550913D05452BD1F7FE
S11301F07093480560934705E0E8F0E020812064AF
S113020020839C0140E050E060E072E18AE790E0E6
S11302100E94B70721503109309389002093880048
S113022081E090E090933D0580933C050895109201
S11302303B0510923D0510923C05E0E8F0E080811A
S11302408F7B8083089581E080933B05E0913A059C
S1130250F0E0EE0FFF1FE85FFE4F808191819093E5
S113026044058093430505C03196F0934405E0931B
S11302704305E0914305F091440580818A33A1F759
S11302803196F0934405E09343053FC18081843661
S113029009F055C0109246053196F0934405E09359
S11302A0430505C03196F0934405E0934305E0917E
S11302B04305F091440580818D33A1F305C0319647
S11302C0F0934405E0934305E0914305F091440520
S11302D080818032A1F38081803338F080818A3339
S11302E020F48081805380934605CF01019690933A
S11302F044058093430521812033D0F021812A33A2
S1130300B8F4318120914605220F422F440F440F47
S1130310240F230F20532093460501969093440500
S11303208093430505C03196F0934405E09343055B
S1130330E0914305F091440580818C32A1F3E09172
S11303404305F091440580818F36E9F510924D05FF
S11303503196F0934405E093430505C03196F0933C
S11303604405E0934305E0914305F0914405808101
S11303708D33A1F305C03196F0934405E093430512
S1130380E0914305F091440580818032A1F380819E
S1130390803338F080818A3320F4808180538093C5
S11303A04D053196F0934405E093430505C031961D
S11303B0F0934405E0934305E0914305F09144052F
S11303C080818C32A1F3E0914305F0914405808152
S11303D0823609F093C0109241051092400531967F
S11303E0F0934405E093430505C03196F09344052A
S11303F0E0934305E0914305F091440580818D33FA
S1130400A1F305C03196F0934405E0934305E091D0
S11304104305F091440580818032A1F380818033CB
S113042050F080818A3338F4808190E0C0979093B3
S1130430410580934005DF011196B0934405A093D4
S113044043058181803308F44CC081818A3308F0EC
S113045048C080914005909141059C01220F331FB3
S1130460880F991F880F991F880F991F820F931F58
S11304702181820F911DC09790934105809340057F
S11304809D012F5F3F4F3093440520934305119600
S11304904C911197403328F111964C9111974A339E
S11304A000F5AC01440F551F880F991F880F991F41
S11304B0880F991F840F951F11964C91840F911DDD
S11304C0C09790934105809340052F5F3F4F309331
S11304D044052093430505C03196F0934405E09309
S11304E04305E0914305F091440580818C32A1F3EA
S11304F005C03196F0934405E0934305E09143052C
S1130500F091440580818C32A1F3E0914305F09190
S1130510440580818A3309F0B9CE3196F0934405BD
S1130520E093430508950F93CF93DF93E091430540
S1130530F09144058081882309F427C180913B050B
S1130540882309F422C18FEF8093420580914D05E1
S113055080934A058091460580934905109245058C
S11305608081803318F180818A3300F5DF018D9119
S1130570805380934905B0934405A093430581813A
S11305808033A0F081818A3388F480914905918178
S1130590880F282F220F220F820F890F80538093F8
S11305A049051196B0934405A0934305C0914305B2
S11305B0D0914405E8818E2F90E0FC01E156F109C9
S11305C0E031F10510F5EC5CFF4F0C94D607109266
S11305D042051BC082E08093420517C084E08093EB
S11305E0420513C085E0809342050FC087E08093E5
S11305F042050BC089E08093420507C08BE08093DD
S1130600420503C08FEF80934205CE01019690937B
S11306104405809343052981233251F420914205F6
S11306202F5F2093420501969093440580934305E0
S1130630E0914305F091440580818E3241F481E0DC
S1130640809345053196F0934405E0934305E0918A
S11306504305F09144058081803358F080818A33CA
S113066040F48191805380934A05F0934405E093CC
S11306704305E0914305F091440580818E3271F485
S113068081E0809345053196F0934405E09343055A
S113069005C03196F0934405E0934305E09143058A
S11306A0F091440580818C32A1F320914005309172
S11306B0410540E050E060E67AEE80E090E00E9480
S11306C0B707CA01B90100914905202F30E040E085
S11306D050E00E94B70730934C0520934B0580915E
S11306E04B0590914C05880F991F880F991F909383
S11306F04C0580934B0580914505882379F08091C2
S11307004B0590914C059C01220F331F820F931FC0
S11307109695879590934C0580934B05809142055F
S11307208F3FF1F060914B0570914C0580914A0523
S113073090E0049720914205FC01EE0FFF1FE80FA3
S1130740F91FEE0FFF1FEE0FFF1FE20FF11DEE0F5B
S1130750FF1FE05FFE4F808191810E94F2000EC076
S113076080914B0590914C059093480580934705E3
S113077081E090E090933D0580933C0580913C0599
S113078090913D05892BD1F702C010923B05DF9172
S1130790CF910F91089580E091E0089580933A05F8
S11307A0E82FF0E0EE0FFF1FE85FFE4F808191819C
S11307B0909344058093430508959093480580934E
S11307C04705089590933D0580933C0508958091D5
S11307D0470590914805089580913B050895E0915F
S11307E03A05F0E0EE0FFF1FE050FF4F808191814A
S11307F0089583B7817F83BF83B7816083BF889562
S113080083B78E7F83BF08950E94DF050E94E805A9
S11308100E94F60587E60E9481050E948B050E94CE
S11308209D050E94A3050E94910478940E942C06C1
S1130830892B49F00E94A9050E9431060E94A30554
S11308400E945A0506C00E94EC03813011F40E94F4
S113085093020E94F903EACF0F931F93CF93DF9380
S113086063E771E08EE495E00E940D088EE495E064
S11308700E942B070E94CB038C01C0E0D0E016C07D
S113088083E294E00E944A078C2F805D0E94E20676
S113089087E394E00E944A07FE01EE0FFF1FE00F7A
S11308A0F11F808191810E942B072196C430D105CC
S11308B03CF3DF91CF911F910F91089569E671E0A8
S11308C08EE495E00E940D088EE495E00E942B07CB
S11308D069E371E08EE495E00E940D088EE495E0F2
S11308E00E942B076FEF70E08EE495E00E940D08E4
S11308F08EE495E00E942B076EEB70E08EE495E0A9
S11309000E940D088EE495E00E942B0768E870E0D1
S11309108EE495E00E940D088EE495E00E942B077A
S113092008956EE771E08EE495E00E940D088EE470
S113093095E00E942B070E942C0485E694E00E9417
S11309404A070E945E040895CF92DF92EF92FF92CD
S11309500F931F93CF93DF938C017B01C0E0D0E012
S11309600AC06E019FEFC91AD90ACE0DDF1D888314
S11309700E94A306E601F801EA59FF4F0190F081B5
S1130980E02DE00FF11F80818D3059F70E94A306FE
S11309900E94A306CE0DDF1D1882DF91CF911F9117
S11309A00F91FF90EF90DF90CF900895CF93DF9356
S11309B0EC0165E274E00E941408892B79F40E942A
S11309C023018AE294E00E944A070E94EF030E94F6
S11309D04A0784E694E00E942B0769C043E050E094
S11309E06AE374E0CE010E941D08892B91F50E94F0
S11309F0EC03882329F08EE394E00E942B0757C070
S1130A008B81803209F58D8181111EC08C818053C8
S1130A10843078F40E94CE0387E694E00E944A076B
S1130A200E94EF030E942B0785E694E00E944A0788
S1130A303EC087E794E00E942B070E942C0485E6C1
S1130A4094E00E942B0733C082E994E00E942B07B4
S1130A502EC06CEB74E0CE010E941408892B81F443
S1130A600E94EC03882329F081EC94E00E942B0778
S1130A7004C088ED94E00E942B070E94170117C060
S1130A8068EF74E0CE010E941408892B61F48EEFA4
S1130A9094E00E942B070E94170180E00E94CE037D
S1130AA00E94910404C08AE195E00E942B07DF9123
S1130AB0CF910895CF93DF93CDB7DEB7C456D10954
S1130AC00FB6F894DEBF0FBECDBF0E943B06BE0139
S1130AD06F5F7F4F0E94A404CE0101960E942B07F2
S1130AE08981882321F0CE0101960E94D604CC5935
S1130AF0DF4F0FB6F894DEBF0FBECDBFDF91CF91AD
S1130B0008951092C10096E09093C2001092C5001F
S1130B108093C4000895E1ECF0E0808188608083D4
S1130B200895E1ECF0E08081806280830895E1EC37
S1130B30F0E080818F7D80830895E1ECF0E0808196
S1130B40806180830895E1ECF0E080818068808397
S1130B500895E1ECF0E080818F77808308951F92FF
S1130B600F920FB60F9211242F933F934F935F93DD
S1130B706F937F938F939F93AF93BF93EF93FF9361
S1130B800E94E703009721F001970E94DD0306C04D
S1130B901092800080E090E00E94E203FF91EF91C8
S1130BA0BF91AF919F918F917F916F915F914F9181
S1130BB03F912F910F900FBE0F901F90189588EFC3
S1130BC087BD82E084BD93E095BD80936E00089557
S1130BD0E0E8F0E0808180648083E1E8F0E08081F7
S1130BE08960808384B1826084B908951092A707D4
S1130BF01092A6071092A9071092A80710920F0846
S1130C0010920E0810921108109210080895409145
S1130C10A8075091A9072091A6073091A70781E062
S1130C204217530709F080E008952091100830918D
S1130C30110880910E0890910F082817390741F484
S1130C4080913E0590913F05892B21F480E0089521
S1130C5080E0089581E0089580913E0590913F05DC
S1130C60089580913E0590913F05019790933F052B
S1130C7080933E0508958AEA97E00895E0910E086E
S1130C80F0910F088091C600E655F84F80830895CF
S1130C90EEE0F8E0408151814F5F5F4F9A01369555
S1130CA0279536952795ABE7B4E10E94DC07969526
S1130CB0879564E6689F9001699F300D1124421B5B
S1130CC0530B5183408308951F920F920FB60F92D6
S1130CD011242F933F934F935F936F937F938F933D
S1130CE09F93AF93BF93EF93FF930E9415068111D7
S1130CF017C00E943E06E0910E08F0910F08E655D9
S1130D00F84F80818A3049F480913E0590913F05E7
S1130D10019690933F0580933E050E94480602C0C9
S1130D200E94A905FF91EF91BF91AF919F918F917F
S1130D307F916F915F914F913F912F910F900FBED3
S1130D400F901F901895E0E1F8E0408151814F5FCA
S1130D505F4F9A013695279536952795ABE7B4E111
S1130D600E94DC079695879564E6689F9001699FC9
S1130D70300D1124421B530B518340830895E6EA3E
S1130D80F7E0408151814F5F5F4F9A013695279577
S1130D9036952795A5ECB0E20E94DC0792958295E2
S1130DA08F7089279F70892764EF71E0869F900177
S1130DB0879F300D969F300D1124421B530B518396
S1130DC040830895CF93C82F4091A6075091A70759
S1130DD0FA0131969F013695279536952795A5EC0E
S1130DE0B0E20E94DC07929582958F7089279F70EC
S1130DF0892764EF71E0869F9001879F300D969F4D
S1130E00300D1124CF01821B930B2091A807309140
S1130E10A90782179307A1F4FA01EE54FA4F8AE066
S1130E2080830E94BF0680913E0590913F05019604
S1130E3090933F0580933E050E94970580E009C08A
S1130E40FA01EE54FA4FC0830E94BF060E94910536
S1130E5081E0CF9108950F931F93CF938C0191E07C
S1130E60C0E004C00E94E206982FCF5FF801EC0FA7
S1130E70F11D8081882311F09111F4CF992331F071
S1130E808DE00E94E2068AE00E94E206CF911F9163
S1130E900F9108950F931F93CF938C01C0E003C06B
S1130EA00E94E206CF5FF801EC0FF11D80818111F1
S1130EB0F7CFCF911F910F910895E8EAF7E04081B1
S1130EC051814F5F5F4F9A01369527953695279547
S1130ED0A5ECB0E20E94DC07929582958F70892779
S1130EE09F70892764EF71E0869F9001879F300D82
S1130EF0969F300D1124421B530B51834083089558
S1130F001F920F920FB60F9211242F933F934F937A
S1130F105F936F937F938F939F93AF93BF93EF935D
S1130F20FF930E940706813029F40E9497050E94CE
S1130F30A3050CC0E091A807F091A907EE54FA4F5D
S1130F40808181118093C6000E945D07FF91EF911B
S1130F50BF91AF919F918F917F916F915F914F91CD
S1130F603F912F910F900FBE0F901F901895052E53
S1130F7097FB1EF400940E94CE0757FD07D00E94F1
S1130F80EB0707FC03D04EF40C94CE075095409524
S1130F90309521953F4F4F4F5F4F08959095809521
S1130FA0709561957F4F8F4F9F4F0895EE0FFF1FF0
S1130FB00590F491E02D0994A29FB001B39FC00164
S1130FC0A39F700D811D1124911DB29F700D811D71
S1130FD01124911D0895A1E21A2EAA1BBB1BFD0129
S1130FE00DC0AA1FBB1FEE1FFF1FA217B307E40704
S1130FF0F50720F0A21BB30BE40BF50B661F771F5C
S1131000881F991F1A9469F760957095809590953B
S11310109B01AC01BD01CF010895FB01DC010590EA
S11310200D920020E1F70895FB01DC018D91019000
S113103080190110D9F3990B0895FB01DC0141508B
S1131040504030F08D910190801919F40020B9F7C7
S10D1050881B990B0895F894FFCF54
S113105A70017D018E019C01A4011102E402A60320
S113106A06011501260137014A015D017201880151
S113107A9F01B801D201EE010B022A024B026E0251
S113108A9302BA02E40210033E037003A403DC03CE
S113109A170455049704DC0427057505C8052006BA
S11310AA7C06E0064907B8072D08AA082D09B909DC
S11310BA4D0AEA0A900B400CF80CC00D900E6F0F03
S11310CA4C6F732053696D70736F6E73004D69733F
S11310DA696F6E20496D706F7369626C6500496E41
S11310EA6469616E61204A6F6E65730057616E6E42
S11310FA6162650054686553696D70736F6E733A03
S113110A643D342C6F3D352C623D3136303A632EC2
S113111A362C65362C6623362C3861362C672E36E7
S113112A2C65362C63362C38612C3866232C3866A9
S113113A232C3866232C32672C38702C38702C38C0
S113114A66232C3866232C3866232C38672C6123B3
S113115A2E2C3863362C3863362C3863362C633697
S113116A004D697373696F6E496D703A643D342C2E
S113117A6F3D362C623D3135303A313664352C3187
S113118A366423352C313664352C31366423352CB8
S113119A313664352C31366423352C313664352C9A
S11311AA313664352C31366423352C313665352C89
S11311BA313666352C31366623352C313667352C73
S11311CA3867352C34702C3867352C34702C3861D8
S11311DA23352C38702C3863362C38702C38673504
S11311EA2C34702C3867352C34702C3866352C38EE
S11311FA702C38702C3867352C34702C34702C3899
S113120A6123352C38702C3863362C38702C3867A7
S113121A352C34702C34702C3866352C38702C38B4
S113122A6623352C38702C386123352C3867352CD5
S113123A31643500496E6469616E613A643D342CE7
S113124A6F3D352C623D3235303A652C38702C3876
S113125A662C38672C38702C3163362C38702E2C57
S113126A642C38702C38652C31662C702E2C672C23
S113127A38702C38612C38622C38702C3166362C34
S113128A702C612C38702C38622C3263362C326400
S113129A362C3265362C652C38702C38662C386717
S11312AA2C38702C3163362C702C64362C38702C04
S11312BA3865362C31662E362C672C38702C3867F4
S11312CA2C652E362C38702C64362C38702C3867E2
S11312DA2C652E362C38702C64362C38702C3867D2
S11312EA2C662E362C38702C65362C38702C3864C3
S11312FA362C3263360057616E6E6162653A643D1C
S113130A342C6F3D352C623D3132353A3136672CF7
S113131A3136672C3136672C3136672C38672C38CE
S113132A612C38672C38652C38702C3136632C3193
S113133A36642C3136632C38642C38642C38632C8C
S113134A652C702C38672C38672C38672C38612C3C
S113135A38672C38652C38702C63362C3863362C55
S113136A38622C38672C38612C3136622C3136615C
S113137A2C67000900504C415900526570726F6421
S113138A756369656E646F3A20004E554D00455287
S113139A524F523A2048617920756E612063616E1A
S11313AA63696F6E20656E20726570726F6475630F
S11313BA63696F6E0D0A0053652073656C65636318
S11313CA696F6E6F3A2000496E677265736520759E
S11313DA6E206E756D65726F2061646563756164F4
S11313EA6F0055736F2064656C20636F6D616E6462
S11313FA6F3A204E554D205B6E756D65726F206491
S113140A652063616E63696F6E5D0A0053544F50C1
S113141A00526570726F64756363696F6E206465E8
S113142A74656E6964610A004E6F2068617920638D
S113143A616E63696F6E20656E20726570726F6487
S113144A756363696F6E0A005245534554005265C9
S113145A65737461626C656369656E646F20656C3B
S113146A2073697374656D610A004552524F523A8A
S113147A20436F6D616E646F206E6F20656E636FBB
S10D148A6E747261646F0D0A0000B5
S9030000FC
