S01700004763634170706C69636174696F6E312E737265635B
S11300000C9434000C9451000C9451000C94510045
S11300100C9451000C9451000C9451000C94510018
S11300200C9451000C9451000C9451000C94510008
S11300300C9451000C9451000C9462000C945100E7
S11300400C9451000C9451000C9440010C94C60182
S11300500C9451000C9451000C9451000C945100D8
S11300600C9451000C94510011241FBECFEFD8E022
S1130070DEBFCDBF11E0A0E0B1E0E2E1F4E002C0F8
S113008005900D92AE3FB107D9F725E0AEEFB1E090
S113009001C01D92AF32B207E1F70E9492000C94A6
S11300A007020C94000090930502809304020895C3
S11300B09093FF018093FE01089580910402909132
S11300C0050208951F920F920FB60F9211242F93D9
S11300D03F934F935F936F937F938F939F93AF93CC
S11300E0BF93EF93FF930E945D00009721F0019767
S11300F00E94530006C01092800080E090E00E94AD
S11301005800FF91EF91BF91AF919F918F917F9193
S11301106F915F914F913F912F910F900FBE0F9070
S11301201F9018950E94E80087E60E94C0000E9474
S1130130CA000E94DC000E94E200789480EC91E006
S11301400E949F0188E991E00E949F0186E691E068
S11301500E949F018DE291E00E949F0180E091E066
S11301600E949F010E947D018130E1F7F89480E0B4
S11301700E9480010E94FF000E949F017894F2CFA8
S11301801092C10096E09093C2001092C500809333
S1130190C4000895E1ECF0E08081886080830895D4
S11301A0E1ECF0E08081806280830895E1ECF0E08E
S11301B080818F7D80830895E1ECF0E0808180610F
S11301C080830895E1ECF0E0808180688083089565
S11301D0109298031092970310929A031092990325
S11301E010922C0510922B0510922E0510922D05BD
S11301F00895E82FF0E0E95FFD4F808108958BE9D1
S113020093E00895E0912B05F0912C05E556FC4F01
S113021080830895E0912B05F0912C058091C60010
S1130220E556FC4F808308958091990308951092B8
S11302309A031092990310929803109297030895C9
S1130240EBE2F5E0408151814F5F5F4F9A013295B7
S113025022952F7023273F702327AEE3BAE00E9434
S1130260F80120E931E0BC01629FC001639F900D59
S1130270729F900D1124481B590B5183408308959C
S11302801F920F920FB60F9211242F933F934F9307
S11302905F936F937F938F939F93AF93BF93EF93EA
S11302A0FF930E940A010E942001E0912B05F09126
S11302B02C05E656FC4F80818A3031F480E00E94A0
S11302C0020181E080930002FF91EF91BF91AF9111
S11302D09F918F917F916F915F914F913F912F915A
S11302E00F900FBE0F901F901895E9E9F3E08081FD
S11302F091810196918380830895809100020895ED
S1130300809300020895CF9320919703309198032E
S11303102039314088F4C82F0E94D600E7E9F3E081
S113032080819181DC01A95FBD4FCC9301969183BB
S113033080830E94D00001C08FEFCF9108950F9366
S11303401F93CF938C01C0E003C00E948301CF5F51
S1130350F801EC0FF11D80818111F7CF8DE00E942F
S113036083018AE00E948301CF911F910F91089528
S11303704091990350919A032091970330919803E7
S113038081E04217530708F080E008951F920F920E
S11303900FB60F9211242F933F934F935F936F9354
S11303A07F938F939F93AF93BF93EF93FF930E9499
S11303B014010E94F9008093C6000E9475010E94F6
S11303C0B801811104C00E9417010E94D600FF9158
S11303D0EF91BF91AF919F918F917F916F915F91B9
S11303E04F913F912F910F900FBE0F901F90189532
S11303F0A29FB001B39FC001A39F700D811D112462
S1130400911DB29F700D811D1124911D0895F894C2
S1050410FFCF18
S113041252455345543A205265696E6963696120B5
S1130422656C2073697374656D6120616C206573FA
S11304327461646F20696E696369616C004E554D25
S11304423A204E756D65726F2064652063616E6338
S1130452696F6E20612073656C656363696F6E6199
S113046272206465206C61206C69737461205B3155
S11304722061204E5D0053544F503A204465746904
S1130482656E65206C6120726570726F647563635A
S1130492696F6E2064656C20736F6E69646F20658A
S11304A26E20637572736F00504C41593A20526545
S11304B270726F64756365206C612063616E636939
S11304C26F6E2073656C656363696F6E616461004E
S11304D24269656E76656E69646F20616C2073652E
S11304E26C6563746F722064652072696E67746FE1
S11304F26E6573212043616E63696F6E6573206458
S11105026973706F6E69626C65733A20000055
S9030000FC
