S01700004763634170706C69636174696F6E312E737265635B
S11300000C9444000C9461000C9461000C94610005
S11300100C9461000C9461000C9461000C946100D8
S11300200C9461000C9461000C9461000C946100C8
S11300300C9461000C9461000C94D4040C94610041
S11300400C9461000C9461000C94F4050C946E06FD
S11300500C9461000C9461000C9461000C94610098
S11300600C9461000C9461008F0293027C027F0265
S1130070830287028B029A029A029A029A029A02D5
S11300809A029A029A02970211241FBECFEFD8E077
S1130090DEBFCDBF15E0A0E0B1E0E6E2FEE002C0C5
S11300A005900D92AA3EB107D9F728E0AAEEB5E073
S11300B001C01D92AA34B207E1F70E946B030C94AD
S11300C011070C94000080E091E008958093EA0504
S11300D0E82FF0E0EE0FFF1FE85FFE4F8081918173
S11300E09093F4058093F30508959093F805809315
S11300F0F70508959093ED058093EC05089580919C
S1130100F7059091F80508958091EB0508954091C5
S1130110EC055091ED05452BD1F77093F8056093EC
S1130120F705E0E8F0E02081206420839C0140E0B2
S113013050E060E072E18AE790E00E94A40621505A
S11301403109309389002093880081E090E09093F6
S1130150ED058093EC0508951092EB051092ED05E2
S11301601092EC05E0E8F0E080818F7B80830895B5
S113017081E08093EB05E091EA05F0E0EE0FFF1FCC
S1130180E85FFE4F808191819093F4058093F3059D
S113019005C03196F093F405E093F305E091F3057F
S11301A0F091F40580818A33A1F73196F093F40538
S11301B0E093F3053FC18081843609F055C0109265
S11301C0F6053196F093F405E093F30505C03196F6
S11301D0F093F405E093F305E091F305F091F40551
S11301E080818D33A1F305C03196F093F405E0933B
S11301F0F305E091F305F091F40580818032A1F3D9
S11302008081803338F080818A3320F48081805368
S11302108093F605CF0101969093F4058093F3053E
S113022021812033D0F021812A33B8F43181209107
S1130230F605220F422F440F440F240F230F20539F
S11302402093F60501969093F4058093F30505C079
S11302503196F093F405E093F305E091F305F09102
S1130260F40580818C32A1F3E091F305F091F4055B
S113027080818F36E9F51092FD053196F093F405EF
S1130280E093F30505C03196F093F405E093F3058C
S1130290E091F305F091F40580818D33A1F305C05D
S11302A03196F093F405E093F305E091F305F091B2
S11302B0F40580818032A1F38081803338F080811D
S11302C08A3320F4808180538093FD053196F09326
S11302D0F405E093F30505C03196F093F405E0933B
S11302E0F305E091F305F091F40580818C32A1F3DC
S11302F0E091F305F091F4058081823609F093C012
S11303001092F1051092F0053196F093F405E09304
S1130310F30505C03196F093F405E093F305E091FD
S1130320F305F091F40580818D33A1F305C0319676
S1130330F093F405E093F305E091F305F091F405EF
S113034080818032A1F38081803350F080818A33B0
S113035038F4808190E0C0979093F1058093F00584
S1130360DF011196B093F405A093F30581818033E6
S113037008F44CC081818A3308F048C08091F005AC
S11303809091F1059C01220F331F880F991F880F4C
S1130390991F880F991F820F931F2181820F911D2E
S11303A0C0979093F1058093F0059D012F5F3F4F17
S11303B03093F4052093F30511964C911197403333
S11303C028F111964C9111974A3300F5AC01440F72
S11303D0551F880F991F880F991F880F991F840F25
S11303E0951F11964C91840F911DC0979093F10520
S11303F08093F0052F5F3F4F3093F4052093F3056E
S113040005C03196F093F405E093F305E091F3050C
S1130410F091F40580818C32A1F305C03196F093FC
S1130420F405E093F305E091F305F091F405808180
S11304308C32A1F3E091F305F091F40580818A33C5
S113044009F0B9CE3196F093F405E093F3050895DD
S11304500F93CF93DF93E091F305F091F40580813E
S1130460882309F427C18091EB05882309F422C16C
S11304708FEF8093F2058091FD058093FA058091BA
S1130480F6058093F9051092F5058081803318F103
S113049080818A3300F5DF018D9180538093F905C3
S11304A0B093F405A093F30581818033A0F081819A
S11304B08A3388F48091F9059181880F282F220FBF
S11304C0220F820F890F80538093F9051196B09300
S11304D0F405A093F305C091F305D091F405E881E8
S11304E08E2F90E0FC01E156F109E031F10510F5A1
S11304F0EC5CFF4F0C94C3061092F2051BC082E023
S11305008093F20517C084E08093F20513C085E060
S11305108093F2050FC087E08093F2050BC089E059
S11305208093F20507C08BE08093F20503C08FEF40
S11305308093F205CE0101969093F4058093F30520
S11305402981233251F42091F2052F5F2093F20583
S113055001969093F4058093F305E091F305F091EF
S1130560F40580818E3241F481E08093F505319663
S1130570F093F405E093F305E091F305F091F405AD
S11305808081803358F080818A3340F48191805394
S11305908093FA05F093F405E093F305E091F305F5
S11305A0F091F40580818E3271F481E08093F50539
S11305B03196F093F405E093F30505C03196F0937A
S11305C0F405E093F305E091F305F091F4058081DF
S11305D08C32A1F32091F0053091F10540E050E018
S11305E060E67AEE80E090E00E94A406CA01B901B8
S11305F00091F905202F30E040E050E00E94A4066D
S11306003093FC052093FB058091FB059091FC053C
S1130610880F991F880F991F9093FC058093FB0501
S11306208091F505882379F08091FB059091FC0574
S11306309C01220F331F820F931F969587959093E9
S1130640FC058093FB058091F2058F3FF1F06091EA
S1130650FB057091FC058091FA0590E004972091C8
S1130660F205FC01EE0FFF1FE80FF91FEE0FFF1F4D
S1130670EE0FFF1FE20FF11DEE0FFF1FE05FFE4FB5
S1130680808191810E9487000EC08091FB0590912A
S1130690FC059093F8058093F70581E090E0909332
S11306A0ED058093EC058091EC059091ED05892B87
S11306B0D1F702C01092EB05DF91CF910F9108950D
S11306C083B7817F83BF83B7816083BF889583B7F6
S11306D08E7F83BF08950E9404050E940D050E9429
S11306E01B0587E60E94A6040E94B0040E94C2046F
S11306F00E94C8040E94CC0378940E94B905892BF7
S113070049F00E94CE040E94BE050E94C8040E94C3
S11307107F0406C00E948400813011F40E942802E4
S11307200E946003EACF0F931F93CF93DF9388EB6C
S113073095E00E9465050E9463008C01C0E0D0E052
S11307400EC082E294E00E947E05FE01EE0FFF1FC0
S1130750E00FF11F808191810E9465052196C430CC
S1130760D1057CF3DF91CF911F910F9108958EEA0B
S113077095E00E9465058EE795E00E94650584E496
S113078095E00E94650583E095E00E9465058DEC87
S113079094E00E946505089583EC95E00E94650548
S11307A00E9493038BEC94E00E947E050E94B703A1
S11307B00895CF92DF92EF92FF920F931F93CF93FE
S11307C0DF938C017B01C0E0D0E00AC06E019FEF93
S11307D0C91AD90ACE0DDF1D88830E942C06E601B2
S11307E0F801EE5AFF4F0190F081E02DE00FF11F68
S11307F080818D3059F70E942C060E942C06CE0D64
S1130800DF1D1882DF91CF911F910F91FF90EF9020
S1130810DF90CF900895CF93DF93EC0164E274E00E
S11308200E94FA06892B39F40E94B80089E294E008
S11308300E94650561C043E050E067E374E0CE01C7
S11308400E940307892B99F58B81803259F58D819C
S1130850811128C0CC81C053C430C8F48BE394E028
S11308600E947E050E9463002C2F30E0220F331F6C
S1130870820F931FFC01808191810E9465058C2F5A
S11308800E9466008BEC94E00E94650535C08AE402
S113089094E00E9465050E9493038BEC94E00E940F
S11308A065052AC085E694E00E94650525C06AE8CE
S11308B074E0CE010E94FA06892B39F40E94AC0040
S11308C08FE894E00E94650517C06DE974E0CE01DD
S11308D00E94FA06892B61F483EA94E00E9465057C
S11308E00E94AC0080E00E9466000E94B70304C02E
S11308F085EB94E00E946505DF91CF910895CF9335
S1130900DF93CDB7DEB7C055D1090FB6F894DEBF7B
S11309100FBECDBF0E94C805BE016F5F7F4F0E940E
S1130920D903CE0101960E9465058981882321F0AF
S1130930CE0101960E940B04C05BDF4F0FB6F89402
S1130940DEBF0FBECDBFDF91CF9108951092C100DD
S113095096E09093C2001092C5008093C40008955D
S1130960E1ECF0E08081886080830895E1ECF0E0C0
S11309708081806280830895E1ECF0E080818F7D46
S113098080830895E1ECF0E08081806180830895A4
S1130990E1ECF0E08081806880830895E1ECF0E090
S11309A080818F77808308951F920F920FB60F92E4
S11309B011242F933F934F935F936F937F938F9360
S11309C09F93AF93BF93EF93FF930E947F00009791
S11309D021F001970E94750006C01092800080E00B
S11309E090E00E947A00FF91EF91BF91AF919F91A7
S11309F08F917F916F915F914F913F912F910F90C4
S1130A000FBE0F901F90189588EF87BD82E084BDBC
S1130A1093E095BD80936E000895E0E8F0E0808156
S1130A2080648083E1E8F0E080818960808384B120
S1130A30826084B908951092F3071092F20710921D
S1130A40F5071092F4071092470810924608109286
S1130A504908109248080895CF93C82F4091F2078F
S1130A605091F307FA0131969F01369527953695F3
S1130A702795A5ECB0E20E94C906929582958F70E5
S1130A8089279F70892764EF71E0869F9001879F73
S1130A90300D969F300D1124CF01821B930B2091B2
S1130AA0F4073091F5078217930761F0FA01E250D9
S1130AB0FA4FC0839093F3078093F2070E94B60421
S1130AC080E001C081E0CF9108950F931F93CF93ED
S1130AD08C01C0E003C00E942C05CF5FF801EC0F2D
S1130AE0F11D80818111F7CF8DE00E942C058AE0F1
S1130AF00E942C05CF911F910F9108950F931F937E
S1130B00CF938C01C0E003C00E942C05CF5FF80195
S1130B10EC0FF11D80818111F7CFCF911F910F91BF
S1130B2008954091F4075091F507E091F207F09190
S1130B30F3079A013695279536952795A5ECB0E2EB
S1130B400E94C906929582958F7089279F70892784
S1130B5064EF71E0869F9001879F300D969F300D62
S1130B601124421B530B81E04E175F0709F080E00C
S1130B7008958091EE059091EF0508958091EE051A
S1130B809091EF0501979093EF058093EE050895FA
S1130B9086EF97E00895E0914608F0914708809128
S1130BA0C600EA50F84F80830895E6E4F8E04081F7
S1130BB051814F5F5F4F9A01ADECBCEC0E94C906B6
S1130BC00024880F991F001C880F991F001C892F6F
S1130BD0902D60E5689F9001699F300D1124421BA0
S1130BE0530B5183408308951F920F920FB60F92B7
S1130BF011242F933F934F935F936F937F938F931E
S1130C009F93AF93BF93EF93FF930E94CB05E09123
S1130C104608F0914708EA50F84F80818A3049F439
S1130C208091EE059091EF0501969093EF058093E6
S1130C30EE050E94D505FF91EF91BF91AF919F9171
S1130C408F917F916F915F914F913F912F910F9071
S1130C500FBE0F901F901895E8E4F8E04081518191
S1130C604F5F5F4F9A01ADECBCEC0E94C9060024B3
S1130C70880F991F001C880F991F001C892F902D25
S1130C8060E5689F9001699F300D1124421B530B4E
S1130C90518340830895E4EFF7E0408151814F5F31
S1130CA05F4F9A013695279536952795A5ECB0E2C6
S1130CB00E94C906929582958F7089279F70892713
S1130CC064EF71E0869F9001879F300D969F300DF1
S1130CD01124421B530B5183408308951F920F929A
S1130CE00FB60F9211242F933F934F935F936F93FB
S1130CF07F938F939F93AF93BF93EF93FF930E9440
S1130D009105813029F40E94BC040E94C8040BC0E0
S1130D10E091F407F091F507E250FA4F8081809357
S1130D20C6000E944B06FF91EF91BF91AF919F9136
S1130D308F917F916F915F914F913F912F910F9080
S1130D400FBE0F901F901895052E97FB1EF400946C
S1130D500E94BB0657FD07D00E94D80607FC03D0AB
S1130D604EF40C94BB0650954095309521953F4F19
S1130D704F4F5F4F089590958095709561957F4F83
S1130D808F4F9F4F0895EE0FFF1F0590F491E02DB4
S1130D900994A29FB001B39FC001A39F700D811D50
S1130DA01124911DB29F700D811D1124911D089570
S1130DB0A1E21A2EAA1BBB1BFD010DC0AA1FBB1F5B
S1130DC0EE1FFF1FA217B307E407F50720F0A21BCD
S1130DD0B30BE40BF50B661F771F881F991F1A943A
S1130DE069F760957095809590959B01AC01BD0164
S1130DF0CF010895FB01DC018D9101908019011050
S1130E00D9F3990B0895FB01DC014150504030F0B7
S1130E108D910190801919F40020B9F7881B990B62
S1090E200895F894FFCFD1
S1130E2670017F018D019801A3011002E302A5035D
S1130E3606011501260137014A015D017201880187
S1130E469F01B801D201EE010B022A024B026E0287
S1130E569302BA02E40210033E037003A403DC0304
S1130E66170455049704DC0427057505C8052006F0
S1130E767C06E0064907B8072D08AA082D09B90912
S1130E864D0AEA0A900B400CF80CC00D900E6F0F39
S1130E96303A2054686553696D70736F6E73003110
S1130EA63A204D697373696F6E496D7000323A204A
S1130EB6496E6469616E6100333A2057616E6E61F2
S1130EC662650054686553696D70736F6E733A6436
S1130ED63D342C6F3D352C623D3136303A632E3627
S1130EE62C65362C6623362C3861362C672E362C28
S1130EF665362C63362C38612C3866232C386623E9
S1130F062C3866232C32672C38702C38702C3866B3
S1130F16232C3866232C3866232C38672C61232E21
S1130F262C3863362C3863362C3863362C633600FB
S1130F364D697373696F6E496D703A643D342C6FF5
S1130F463D362C623D3135303A313664352C3136F6
S1130F566423352C313664352C31366423352C31F3
S1130F663664352C31366423352C313664352C31D0
S1130F763664352C31366423352C313665352C31BF
S1130F863666352C31366623352C313667352C38A2
S1130F9667352C34702C3867352C34702C38612323
S1130FA6352C38702C3863362C38702C3867352C31
S1130FB634702C3867352C34702C3866352C3870E0
S1130FC62C38702C3867352C34702C34702C3861DE
S1130FD623352C38702C3863362C38702C3867350A
S1130FE62C34702C34702C3866352C38702C3866BA
S1130FF623352C38702C386123352C3867352C3141
S1131006643500496E6469616E613A643D342C6FDF
S11310163D352C623D3235303A652C38702C3866B5
S11310262C38672C38702C3163362C38702E2C648F
S11310362C38702C38652C31662C702E2C672C3885
S1131046702C38612C38622C38702C3166362C7032
S11310562C612C38702C38622C3263362C32643670
S11310662C3265362C652C38702C38662C38672C57
S113107638702C3163362C702C64362C38702C382E
S113108665362C31662E362C672C38702C38672C36
S1131096652E362C38702C64362C38702C38672C18
S11310A6652E362C38702C64362C38702C38672C08
S11310B6662E362C38702C65362C38702C386436EF
S11310C62C3263360057616E6E6162653A643D3454
S11310D62C6F3D352C623D3132353A3136672C3131
S11310E636672C3136672C3136672C38672C3861D5
S11310F62C38672C38652C38702C3136632C3136F5
S1131106642C3136632C38642C38642C38632C6593
S11311162C702C38672C38672C38672C38612C389F
S1131126672C38652C38702C63362C3863362C388B
S1131136622C38672C38612C3136622C3136612C9E
S113114667000900504C415900506C6179696E671B
S113115620736F6E670A004E554D00536F6E6720FD
S113116673656C65637465642000496E67726573A4
S11311766520756E206E756D65726F20616465639A
S11311867561646F00436F6D6D616E642075736184
S113119667653A204E554D205B6E756D626572200B
S11311A66F6620736F6E675D0A0053544F50005389
S11311B6746F7070656420736F6E670A00524553CE
S11311C6455400524553455454494E472073797348
S11311D674656D0A00436F6D616E646F206E6F20D7
S11311E6656E636F6E747261646F0D0A0020202051
S11311F6203D3D3E2052455345543A205265696E82
S11312066963696120656C2073697374656D612017
S1131216616C2065737461646F20696E69636961CA
S11312266C0A00202020203D3D3E204E554D3A209C
S11312364E756D65726F2064652063616E63696FB8
S11312466E20612073656C656363696F6E617220DD
S11312566465206C61206C69737461205B31206164
S1131266204E5D00202020203D3D3E2053544F500B
S11312763A2044657469656E65206C6120726570F8
S1131286726F64756363696F6E2064656C20736F37
S11312966E69646F20656E20637572736F0020201B
S11312A620203D3D3E20504C41593A2052657072F3
S11312B66F64756365206C612063616E63696F6E2C
S11312C62073656C656363696F6E61646100436F67
S11312D66D616E646F733A0043616E63696F6E6528
S11312E6733A004269656E76656E69646F20616C57
S11312F62073656C6563746F722064652072696E11
S10D130667746F6E657321200A00FE
S9030000FC
