S01700004763634170706C69636174696F6E312E737265635B
S11300000C94F1000C940E010C940E010C940E014E
S11300100C940E010C940E010C940E010C940E0120
S11300200C940E010C940E010C940E010C940E0110
S11300300C940E010C940E010C94DD050C940E012D
S11300400C940E010C940E010C9492060C94A307CC
S11300500C940E010C940E010C940E010C940E01E0
S11300600C940E010C940E01210325030E031103BD
S1130070150319031D032C032C032C032C032C033D
S11300802C032C032C032903B700A600980090002E
S113009057616E6E61626500496E6469616E6120CC
S11300A04A6F6E6573004D6973696F6E20496D7098
S11300B06F7369626C65004C6F732053696D707364
S11300C06F6E7300202020203D3D3E205245534555
S11300D0543A205265696E6963696120656C2073C6
S11300E0697374656D6120616C2065737461646FFC
S11300F020696E696369616C0A00202020203D3DFF
S11301003E204E554D3A204E756D65726F206465E4
S11301102063616E63696F6E20612073656C656333
S113012063696F6E6172206465206C61206C697311
S11301307461205B312061204E5D00202020203D31
S11301403D3E2053544F503A2044657469656E65B2
S1130150206C6120726570726F64756363696F6E81
S11301602064656C20736F6E69646F20656E206314
S11301707572736F00202020203D3D3E20504C417D
S1130180593A20526570726F64756365206C612002
S113019063616E63696F6E2073656C656363696F19
S11301A06E61646100436F6D616E646F733A004306
S11301B0616E63696F6E65733A004269656E766558
S11301C06E69646F20616C2073656C6563746F7213
S11301D02064652072696E67746F6E657321200AEE
S11301E0000011241FBECFEFD8E0DEBFCDBF14E066
S11301F0A0E0B1E0ECE9F0E102C005900D92AE3F61
S1130200B107D9F727E0AEEFB4E001C01D92AA3ED2
S1130210B207E1F70E9428040C944C080C940000E7
S1130220E82FF0E0EE0FFF1FE857FF4F8591949100
S113023008954091000550910105452BD1F7709325
S11302400C0560930B05E0E8F0E020812064208336
S11302509C0140E050E060E072E18AE790E00E9497
S1130260D80721503109309389002093880081E018
S113027090E0909301058093000508951092FF0487
S11302801092010510920005E0E8F0E080818F7B78
S11302908083089581E08093FF04E091FE04F0E000
S11302A0EE0FFF1FE050FF4F80819181909308056E
S11302B08093070505C03196F0930805E093070580
S11302C0E0910705F091080580818A33A1F7319602
S11302D0F0930805E09307053FC18081843609F057
S11302E055C010920A053196F0930805E09307056E
S11302F005C03196F0930805E0930705E0910705E2
S1130300F091080580818D33A1F305C03196F093F7
S11303100805E0930705E0910705F0910805808141
S11303208032A1F38081803338F080818A3320F4D5
S11303308081805380930A05CF010196909308052C
S11303408093070521812033D0F021812A33B8F42A
S1130350318120910A05220F422F440F440F240FAC
S1130360230F205320930A05019690930805809348
S1130370070505C03196F0930805E0930705E09161
S11303800705F091080580818C32A1F3E0910705FF
S1130390F091080580818F36E9F5109211053196A8
S11303A0F0930805E093070505C03196F09308051E
S11303B0E0930705E0910705F091080580818D33EE
S11303C0A1F305C03196F0930805E0930705E09189
S11303D00705F091080580818032A1F38081803384
S11303E038F080818A3320F4808180538093110512
S11303F03196F0930805E093070505C03196F09314
S11304000805E0930705E0910705F0910805808150
S11304108C32A1F3E0910705F091080580818236C2
S113042009F093C010920505109204053196F093DB
S11304300805E093070505C03196F0930805E0939D
S11304400705E0910705F091080580818D33A1F33C
S113045005C03196F0930805E0930705E091070580
S1130460F091080580818032A1F38081803350F0BF
S113047080818A3338F4808190E0C0979093050599
S113048080930405DF011196B0930805A093070536
S11304908181803308F44CC081818A3308F048C0DC
S11304A080910405909105059C01220F331F880F4C
S11304B0991F880F991F880F991F820F931F2181FD
S11304C0820F911DC09790930505809304059D01AB
S11304D02F5F3F4F309308052093070511964C91E9
S11304E01197403328F111964C9111974A3300F536
S11304F0AC01440F551F880F991F880F991F880F4F
S1130500991F840F951F11964C91840F911DC097CC
S113051090930505809304052F5F3F4F30930805A2
S11305202093070505C03196F0930805E09307056D
S1130530E0910705F091080580818C32A1F305C094
S11305403196F0930805E0930705E0910705F091D3
S1130550080580818C32A1F3E0910705F09108052C
S113056080818A3309F0B9CE3196F0930805E0937F
S1130570070508950F93CF93DF93E0910705F0915A
S113058008058081882309F427C18091FF0488230A
S113059009F422C18FEF80930605809111058093A1
S11305A00E0580910A0580930D051092090580813E
S11305B0803318F180818A3300F5DF018D918053F7
S11305C080930D05B0930805A093070581818033BE
S11305D0A0F081818A3388F480910D059181880F80
S11305E0282F220F220F820F890F805380930D052D
S11305F01196B0930805A0930705C0910705D09103
S11306000805E8818E2F90E0FC01E156F109E03104
S1130610F10510F5EC5CFF4F0C94F70710920605FA
S11306201BC082E08093060517C084E08093060512
S113063013C085E0809306050FC087E0809306050C
S11306400BC089E08093060507C08BE08093060504
S113065003C08FEF80930605CE01019690930805A1
S1130660809307052981233251F4209106052F5FD9
S11306702093060501969093080580930705E09161
S11306800705F091080580818E3241F481E0809362
S113069009053196F0930805E0930705E0910705F5
S11306A0F09108058081803358F080818A3340F4CA
S11306B08191805380930E05F0930805E09307051C
S11306C0E0910705F091080580818E3271F481E094
S11306D0809309053196F0930805E093070505C05A
S11306E03196F0930805E0930705E0910705F09132
S11306F0080580818C32A1F3209104053091050511
S113070040E050E060E67AEE80E090E00E94D80796
S1130710CA01B90100910D05202F30E040E050E0FE
S11307200E94D8073093100520930F0580910F0580
S113073090911005880F991F880F991F90931005A9
S113074080930F0580910905882379F080910F0526
S1130750909110059C01220F331F820F931F9695D1
S113076087959093100580930F05809106058F3F20
S1130770F1F060910F057091100580910E0590E0E5
S1130780049720910605FC01EE0FFF1FE80FF91FE7
S1130790EE0FFF1FEE0FFF1FE20FF11DEE0FFF1F05
S11307A0E85FFE4F808191810E9419010EC0809103
S11307B00F059091100590930C0580930B0581E033
S11307C090E090930105809300058091000590913D
S11307D00105892BD1F702C01092FF04DF91CF915C
S11307E00F9108958093FE04E82FF0E0EE0FFF1FB1
S11307F0E050FF4F80819181909308058093070515
S1130800089590930C0580930B050895909301052A
S113081080930005089580910B0590910C0508952F
S11308208091FF040895E091FE04F0E0EE0FFF1FB5
S1130830E857FF4F85919491089583B7817F83BFD3
S113084083B7816083BF889583B78E7F83BF089504
S11308500E940D060E9416060E94240687E60E9446
S1130860AF050E94B9050E94CB050E94D1050E94E4
S1130870B10478940E945A06892B49F00E94D70546
S11308800E945F060E94D1050E94880506C00E944E
S11308901004813011F40E94BA020E941D04EACFB0
S11308A0CF93DF936FEA71E082E195E00E942E0816
S11308B082E195E00E944E07C0E0D0E019C087EEC7
S11308C093E00E946D078C2F805D0E9410078BEFD0
S11308D093E00E946D078C2F0E941001BC0186E7F3
S11308E095E00E942E0886E795E00E944E07219627
S11308F0C430D10524F3DF91CF91089565EA71E006
S113090082E195E00E942E0882E195E00E944E0764
S113091065E771E082E195E00E942E0882E195E0AE
S11309200E944E076BE371E082E195E00E942E087D
S113093082E195E00E944E076AEF70E082E195E063
S11309400E942E0882E195E00E944E0764EC70E05C
S113095082E195E00E942E0882E195E00E944E0714
S113096008956AEB71E082E195E00E942E0882E12D
S113097095E00E944E070E94500489E294E00E9490
S11309806D070E947E040895CF92DF92EF92FF924A
S11309900F931F93CF93DF938C017B01C0E0D0E0D2
S11309A00AC06E019FEFC91AD90ACE0DDF1D8883D4
S11309B00E94D106E601F801EA59FF4F0190F08147
S11309C0E02DE00FF11F80818D3059F70E94D10690
S11309D00E94D106CE0DDF1D1882DF91CF911F91A9
S11309E00F91FF90EF90DF90CF900895CF93DF9316
S11309F0EC0169EE73E00E943508892BB1F40E9482
S1130A004A018EEE93E00E946D070E941304BC011C
S1130A1086E795E00E942E0886E795E00E944E073F
S1130A2088E294E00E944E0770C043E050E06EEF0D
S1130A3073E0CE010E943E08892BC9F50E94100480
S1130A40882329F082E094E00E944E075EC08B81E7
S1130A50803241F58D81811125C08C818053843091
S1130A60B0F40E94F2038BE294E00E946D070E94AE
S1130A701304BC0186E795E00E942E0886E795E002
S1130A800E944E0789E294E00E946D073EC08BE30A
S1130A9094E00E944E070E94500489E294E00E9470
S1130AA04E0733C086E594E00E944E072EC060E8EE
S1130AB074E0CE010E943508892B81F40E94100451
S1130AC0882329F085E894E00E944E0704C08CE94D
S1130AD094E00E944E070E943E0117C06CEB74E044
S1130AE0CE010E943508892B61F482EC94E00E94C7
S1130AF04E070E943E0180E00E94F2030E94B1046E
S1130B0004C08EED94E00E944E07DF91CF910895CA
S1130B10CF93DF93CDB7DEB7C456D1090FB6F8949F
S1130B20DEBF0FBECDBF0E946906BE016F5F7F4F5F
S1130B300E94C404CE0101960E944E078981882335
S1130B4021F0CE0101960E94F604CC59DF4F0FB676
S1130B50F894DEBF0FBECDBFDF91CF910895109200
S1130B60C10096E09093C2001092C5008093C40027
S1130B700895E1ECF0E08081886080830895E1ECE1
S1130B80F0E08081806280830895E1ECF0E0808170
S1130B908F7D80830895E1ECF0E080818061808323
S1130BA00895E1ECF0E08081806880830895E1ECB1
S1130BB0F0E080818F77808308951F920F920FB6A3
S1130BC00F9211242F933F934F935F936F937F93CF
S1130BD08F939F93AF93BF93EF93FF930E940B0464
S1130BE0009721F001970E94010406C01092800032
S1130BF080E090E00E940604FF91EF91BF91AF91D5
S1130C009F918F917F916F915F914F913F912F9120
S1130C100F900FBE0F901F90189588EF87BD82E04C
S1130C2084BD93E095BD80936E000895E0E8F0E004
S1130C30808180648083E1E8F0E080818960808342
S1130C4084B1826084B9089510927F0710927E0760
S1130C5010928107109280071092E7071092E6071E
S1130C601092E9071092E807089540918007509187
S1130C70810720917E0730917F0781E04217530757
S1130C8009F080E008952091E8073091E907809108
S1130C90E6079091E7072817390741F48091020588
S1130CA090910305892B21F480E0089580E0089554
S1130CB081E0089580910205909103050895809143
S1130CC00205909103050197909303058093020513
S1130CD0089582E897E00895E091E607F091E70728
S1130CE08091C600EE57F84F80830895E6EEF7E052
S1130CF0408151814F5F5F4F9A0136952795369514
S1130D002795ABE7B4E10E94FD079695879564E6C5
S1130D10689F9001699F300D1124421B530B51832E
S1130D20408308951F920F920FB60F9211242F93B0
S1130D303F934F935F936F937F938F939F93AF935F
S1130D40BF93EF93FF930E944306811117C00E9443
S1130D506C06E091E607F091E707EE57F84F8081C3
S1130D608A3049F48091020590910305019690938D
S1130D700305809302050E94760602C00E94D705EF
S1130D80FF91EF91BF91AF919F918F917F916F915F
S1130D905F914F913F912F910F900FBE0F901F9035
S1130DA01895E8EEF7E0408151814F5F5F4F9A015B
S1130DB03695279536952795ABE7B4E10E94FD0754
S1130DC09695879564E6689F9001699F300D11247C
S1130DD0421B530B518340830895EEE7F7E04081B3
S1130DE051814F5F5F4F9A01369527953695279528
S1130DF0A5ECB0E20E94FD07929582958F70892739
S1130E009F70892764EF71E0869F9001879F300D62
S1130E10969F300D1124421B530B51834083089538
S1130E20CF93C82F40917E0750917F07FA013196E6
S1130E309F013695279536952795A5ECB0E20E943B
S1130E40FD07929582958F7089279F70892764EF9B
S1130E5071E0869F9001879F300D969F300D11247D
S1130E60CF01821B930B2091800730918107821759
S1130E70930749F4FA01E657FA4F8AE080830E9407
S1130E80ED0680E009C0FA01E657FA4FC0830E94DC
S1130E90ED060E94BF0581E0CF9108950F931F9343
S1130EA0CF938C0191E0C0E004C00E941007982FFA
S1130EB0CF5FF801EC0FF11D8081882311F09111AF
S1130EC0F4CF992331F08DE00E9410078AE00E944C
S1130ED01007CF911F910F9108950F931F93CF93F4
S1130EE08C01C0E003C00E941007CF5FF801EC0F33
S1130EF0F11D80818111F7CFCF911F910F9108953A
S1130F00E0E8F7E0408151814F5F5F4F9A013695E9
S1130F10279536952795A5ECB0E20E94FD0792959A
S1130F2082958F7089279F70892764EF71E0869F6F
S1130F309001879F300D969F300D1124421B530B57
S1130F405183408308951F920F920FB60F9211247C
S1130F502F933F934F935F936F937F938F939F93BD
S1130F60AF93BF93EF93FF930E943506813019F43A
S1130F700E94C5050CC0E0918007F0918107E657F7
S1130F80FA4F808181118093C6000E948007FF91EF
S1130F90EF91BF91AF919F918F917F916F915F91ED
S1130FA04F913F912F910F900FBE0F901F90189566
S1130FB0052E97FB1EF400940E94EF0757FD07D0FF
S1130FC00E940C0807FC03D04EF40C94EF075095D4
S1130FD04095309521953F4F4F4F5F4F0895909521
S1130FE08095709561957F4F8F4F9F4F0895EE0FB9
S1130FF0FF1F0590F491E02D0994A29FB001B39FC7
S1131000C001A39F700D811D1124911DB29F700D0D
S1131010811D1124911D0895A1E21A2EAA1BBB1B48
S1131020FD010DC0AA1FBB1FEE1FFF1FA217B307B0
S1131030E407F50720F0A21BB30BE40BF50B661FC6
S1131040771F881F991F1A9469F76095709580958A
S113105090959B01AC01BD01CF010895FB01DC011A
S113106005900D920020E1F70895FB01DC018D91BC
S1131070019080190110D9F3990B0895FB01DC014B
S11310804150504030F08D910190801919F40020A6
S10F1090B9F7881B990B0895F894FFCF62
S113109C6801D501A8026A0306011501260137016E
S11310AC4A015D01720188019F01B801D201EE0170
S11310BC0B022A024B026E029302BA02E4021003E0
S11310CC3E037003A403DC03170455049704DC04E7
S11310DC27057505C80520067C06E0064907B807F0
S11310EC2D08AA082D09B9094D0AEA0A900B400CDF
S11310FCF80CC00D900E6F0F54686553696D7073C6
S113110C6F6E733A643D342C6F3D352C623D313631
S113111C303A632E362C65362C6623362C386136E1
S113112C2C672E362C65362C63362C38612C38669D
S113113C232C3866232C3866232C32672C38702CDD
S113114C38702C3866232C3866232C3866232C38BC
S113115C672C61232E2C3863362C3863362C386379
S113116C362C6336004D697373696F6E496D703A32
S113117C643D342C6F3D362C623D3135303A31367A
S113118C64352C31366423352C313664352C3136A8
S113119C6423352C313664352C31366423352C31AB
S11311AC3664352C313664352C31366423352C3188
S11311BC3665352C313666352C31366623352C3173
S11311CC3667352C3867352C34702C3867352C340D
S11311DC702C386123352C38702C3863362C3870CD
S11311EC2C3867352C34702C3867352C34702C38EB
S11311FC66352C38702C38702C3867352C34702CA0
S113120C34702C386123352C38702C3863362C38D8
S113121C702C3867352C34702C34702C3866352C83
S113122C38702C386623352C38702C386123352CC7
S113123C3867352C31643500496E6469616E613AE6
S113124C643D342C6F3D352C623D3235303A652C7F
S113125C38702C38662C38672C38702C3163362C4B
S113126C38702E2C642C38702C38652C31662C700C
S113127C2E2C672C38702C38612C38622C38702C3E
S113128C3166362C702C612C38702C38622C3263FD
S113129C362C3264362C3265362C652C38702C384E
S11312AC662C38672C38702C3163362C702C6436D1
S11312BC2C38702C3865362C31662E362C672C382D
S11312CC702C38672C652E362C38702C64362C38E0
S11312DC702C38672C652E362C38702C64362C38D0
S11312EC702C38672C662E362C38702C65362C38BE
S11312FC702C3864362C3263360057616E6E616222
S113130C653A643D342C6F3D352C623D3132353AAF
S113131C3136672C3136672C3136672C3136672CD5
S113132C38672C38612C38672C38652C38702C3184
S113133C36632C3136642C3136632C38642C386487
S113134C2C38632C652C702C38672C38672C386738
S113135C2C38612C38672C38652C38702C63362C5F
S113136C3863362C38622C38672C38612C31366251
S113137C2C3136612C67000900504C4159005265E0
S113138C70726F64756369656E646F3A20004E55B4
S113139C4D004552524F523A2048617920756E6186
S11313AC2063616E63696F6E20656E207265707266
S11313BC6F64756363696F6E0D0A00536520736502
S11313CC6C656363696F6E6F3A2000496E67726572
S11313DC736520756E206E756D65726F2061646522
S11313EC637561646F0055736F2064656C20636F63
S11313FC6D616E646F3A204E554D205B6E756D6554
S113140C726F2064652063616E63696F6E5D0A00A0
S113141C53544F5000526570726F64756363696FF7
S113142C6E20646574656E6964610A004E6F206891
S113143C61792063616E63696F6E20656E207265DD
S113144C70726F64756363696F6E0A00524553451D
S113145C5400526565737461626C656369656E648E
S113146C6F20656C2073697374656D610A00455255
S113147C524F523A20436F6D616E646F206E6F2031
S111148C656E636F6E747261646F0D0A00000A
S9030000FC
