S01700004763634170706C69636174696F6E312E737265635B
S11300000C943B000C9458000C9458000C94580029
S11300100C9458000C9458000C9458000C945800FC
S11300200C9458000C9458000C9458000C945800EC
S11300300C9458000C9458000C9439030C945800F8
S11300400C9458000C9458000C94FF050C94CF04A5
S11300500C9458000C9458000C9458000C945800BC
S11300600C9458000C94580088028A028C02800276
S113007082028402860211241FBECFEFD8E0DEBFC5
S1130080CDBF15E0A0E0B1E0E0E0FEE002C00590E5
S11300900D92AC39B107D9F727E0ACE9B5E001C05E
S11300A01D92A43FB207E1F70E9469030C94FE0677
S11300B00C94000081E091E0089580939C05E82F62
S11300C0F0E0EE0FFF1FE75FFE4F80819181909378
S11300D09E0580939D0508959093A6058093A5059C
S11300E008959093A00580939F0508958091A50598
S11300F09091A60508959C0140919F055091A005FB
S1130100452B21F0909100019111F6CF7093A60533
S11301106093A505E0E8F0E080818064808340E09E
S113012050E060E072E18AE790E00E94910621507D
S11301303109309389002093880081E090E0909306
S1130140A00580939F050895109200011092A005C8
S113015010929F05E0E8F0E080818F7B8083089512
S1130160FF920F93CF93DF9381E080930001E0919E
S11301709C05F0E0EE0FFF1FE75FFE4F8081918149
S113018090939E0580939D0584E08093A4058FE35E
S113019090E09093A3058093A20586E08093A70541
S11301A005C03196F0939E05E0939D05E0919D0571
S11301B0F0919E0580818A3321F0809100018111A4
S11301C0F0CF3196F0939E05E0939D0551C184369E
S11301D009F05CC01092A4053196F0939E05E0935B
S11301E09D0505C03196F0939E05E0939D05E09131
S11301F09D05F0919E0580818D3351F4809100011D
S11302008111F0CF05C03196F0939E05E0939D05D2
S1130210E0919D05F0919E058081803221F49091BA
S113022000019111F0CF80538A3010F48093A4051B
S11302309F012F5F3F4F30939E0520939D05818141
S113024090ED980F9A30B8F49091A405990F492F26
S1130250440F440F940F890F80538093A4052F5F9C
S11302603F4F30939E0520939D0505C03196F09332
S11302709E05E0939D05E0919D05F0919E0580818A
S11302808C3221F4809100018111F0CFE0919D0521
S1130290F0919E0580818F3609F044C01092A70525
S11302A03196F0939E05E0939D0505C03196F09339
S11302B09E05E0939D05E0919D05F0919E0580814A
S11302C08D3351F4809100018111F0CF05C0319636
S11302D0F0939E05E0939D05E0919D05F0919E05A8
S11302E08081803221F4909100019111F0CF8053EC
S11302F08A3010F48093A7053196F0939E05E0931D
S11303009D0505C03196F0939E05E0939D05E0910F
S11303109D05F0919E0580818C3221F4809100012D
S11303208111F0CFE0919D05F0919E058081823688
S113033009F093C01092A3051092A2053196F09390
S11303409E05E0939D0505C03196F0939E05E093CC
S11303509D05E0919D05F0919E0580818D3351F4BA
S1130360809100018111F0CF05C03196F0939E0574
S1130370E0939D05E0919D05F0919E05808180327A
S113038021F4909100019111F0CF90ED980F9A30E3
S113039030F490E0C0979093A3058093A205DF0109
S11303A01196B0939E05A0939D05418180ED840F25
S11303B08A3008F041C02091A2053091A305C901FB
S11303C0880F991F220F331F220F331F220F331F51
S11303D0820F931F840F911DC0979093A305809360
S11303E0A2059D012F5F3F4F30939E0520939D05ED
S11303F011964C9150ED540F5A30F0F4BC01660F35
S1130400771F880F991F880F991F880F991F860FD0
S1130410971F840F911DC0979093A3058093A20505
S11304202F5F3F4F30939E0520939D0505C0319665
S1130430F0939E05E0939D05E0919D05F0919E0546
S113044080818C3251F4809100018111F0CF05C07C
S11304503196F0939E05E0939D05E0919D05F09102
S11304609E0580818C3221F4809100018111F0CFAE
S1130470E0919D05F0919E0580818A3321F0909151
S113048000019111A4CE3196F0939E05E0939D0551
S1130490E0C0C091A7050091A40580538A30E0F420
S11304A0AF014F5F5F4F50939E0540939D0591812F
S11304B020ED290F2A3078F4880F082F000F000F41
S11304C0800F082F090F00534F5F5F4F50939E0515
S11304D040939D0501C0082F20919D0530919E05F4
S11304E0D901EC918E2F90E0FC01E156F109E7303F
S11304F0F10520F4EC5CFF4F0C94B006DFEF0DC067
S1130500D2E00BC0D4E009C0D5E007C0D7E005C0F5
S1130510D9E003C0DBE001C0D0E0C90101969093AB
S11305209E0580939D05F9012181233231F4DF5F1B
S1130530019690939E0580939D05E0919D05F09111
S11305409E0580818E3241F43196F0939E05E093AE
S11305509D05FF24F39401C0F12CE0919D05F091D9
S11305609E05808180538A3030F43196F0939E0545
S1130570E0939D05C82FE0919D05F0919E05808133
S11305808E3269F43196F0939E05E0939D05FF2425
S1130590F39405C03196F0939E05E0939D05E09198
S11305A09D05F0919E0580818C3221F4809100019B
S11305B08111F0CF2091A2053091A30540E050E0D5
S11305C060E67AEE80E090E00E949106CA01B901EB
S11305D0202F30E040E050E00E949106220F331FAC
S11305E0220F331FFF2039F0B901660F771F260F42
S11305F0371F36952795DF3FC1F08C2F90E0049785
S1130600FC01EE0FFF1FE80FF91FEE0FFF1FEE0FA7
S1130610FF1FED0FF11DEE0FFF1FEF5EFE4FB9013F
S1130620808191810E947B000AC03093A6052093AB
S1130630A50581E090E09093A00580939F058091AB
S11306409F059091A005892B21F0809100018111D3
S1130650F6CFE0919D05F0919E058081882321F0DD
S113066090910001911115CFDF91CF910F91FF90DF
S113067008951F920F920FB60F9211242F933F9358
S11306804F935F936F937F938F939F93AF93BF9396
S1130690EF93FF930E947600009721F001970E9448
S11306A06C0006C01092800080E090E00E9471000F
S11306B0FF91EF91BF91AF919F918F917F916F9136
S11306C05F914F913F912F910F900FBE0F901F900C
S11306D0189588EF87BD82E084BD93E095BD809333
S11306E06E00E0E8F0E0808180648083E1E8F0E07F
S11306F080818960808384B1826084B90E944405CA
S113070087E60E94A7040E94B1040E94C3040E94C9
S1130710C9040E94D00378940E94A8058130E1F7AF
S113072080E00E94AB050E9483047894F5CF0F9378
S11307301F93CF93DF9389E695E00E94E4050E941E
S11307405A008C01C0E0D0E00EC083ED93E00E941B
S11307507C06FE01EE0FFF1FE00FF11F80819181E7
S11307600E94E4052196C430D1057CF3DF91CF913A
S11307701F910F9108958FE595E00E94E4058FE2A3
S113078095E00E94E40585EF94E00E94E40584EB83
S113079094E00E94E4058EE794E00E94E405089545
S11307A084E795E00E94E4050E9497038CE794E0B7
S11307B00E947C060E94BB030895CF92DF92EF92C1
S11307C0FF920F931F93CF93DF938C017B01C0E0C3
S11307D0D0E00AC06E019FEFC91AD90ACE0DDF1D01
S11307E088830E948905E601F801EE5AFF4F0190C3
S11307F0F081E02DE00FF11F80818D3059F70E94C8
S113080089050E948905CE0DDF1D1882DF91CF91E5
S11308101F910F91FF90EF90DF90CF900895CF93A9
S1130820DF93EC0165ED73E00E94E706892B39F450
S11308308AED93E00E94E4050E94B00061C068EE76
S113084073E0CE010E94E706892B39F40E94A400CC
S11308508DEE93E00E94E40553C043E050E06BEF5B
S113086073E0CE010E94F006892B99F58B818032CA
S113087059F58D81811128C0CC81C053C430C8F48E
S11308808FEF93E00E947C060E945A002C2F30E0E8
S1130890220F331F820F931FFC01808191810E94DC
S11308A0E4058C2F0E945D008CE794E00E94E4052F
S11308B027C08EE094E00E94E4050E9497038CE731
S11308C094E00E94E4051CC089E294E00E94E405DF
S11308D017C06EE474E0CE010E94E706892B61F430
S11308E084E594E00E94E4050E94A40080E00E9454
S11308F05D000E94BB0304C086E694E00E94E40508
S1130900DF91CF910895CF93DF93CDB7DEB7C05574
S1130910D1090FB6F894DEBF0FBECDBF0E945D05AE
S1130920BE016F5F7F4F0E94DD03CE0101960E94DE
S1130930E405CE0101960E940F04C05BDF4F0FB6A1
S1130940F894DEBF0FBECDBFDF91CF910895109212
S1130950C10096E09093C2001092C5008093C40039
S11309600895E1ECF0E08081886080830895E1ECF3
S1130970F0E08081806280830895E1ECF0E0808182
S11309808F7D80830895E1ECF0E080818061808335
S11309900895E1ECF0E080818068808308951F92DF
S11309A00F920FB60F9211242F933F934F935F939F
S11309B06F937F938F939F93AF93BF93EF93FF9323
S11309C040919E0750919F079A0136952795369539
S11309D02795A5ECB0E20E94B606929582958F7099
S11309E089279F70892764EF71E0869F9001879F14
S11309F0300D969F300D1124CA01821B930B209158
S1130A009C0730919D078217930729F40E94BD0427
S1130A100E94C90428C0FA01E855FA4F80818093E6
S1130A20C600EEE9F7E0408151814F5F5F4F9A01C4
S1130A303695279536952795A5ECB0E20E94B60623
S1130A40929582958F7089279F70892764EF71E052
S1130A50869F9001879F300D969F300D1124421B75
S1130A60530B51834083FF91EF91BF91AF919F91BD
S1130A708F917F916F915F914F913F912F910F9043
S1130A800FBE0F901F90189510929D0710929C070F
S1130A9010929F0710929E071092F1071092F00790
S1130AA01092F3071092F2070895E091F207F09183
S1130AB0F307E056F84F8081089580EA97E008959F
S1130AC0E091F007F091F1078091C600E056F84FED
S1130AD080830895E0EFF7E0408151814F5F5F4FDD
S1130AE09A01ADECBCEC0E94B6060024880F991F55
S1130AF0001C880F991F001C892F902D60E5689FAA
S1130B009001699F300D1124421B530B5183408384
S1130B100895E2EFF7E0408151814F5F5F4F9A0102
S1130B20ADECBCEC0E94B6060024880F991F001C93
S1130B30880F991F001C892F902D60E5689F9001F4
S1130B40699F300D1124421B530B51834083089538
S1130B508091A10508958093A1050895CF93C82F8E
S1130B6040919C0750919D07FA0131969F0136955B
S1130B70279536952795A5ECB0E20E94B606929586
S1130B8082958F7089279F70892764EF71E0869F13
S1130B909001879F300D969F300D1124CF01821B49
S1130BA0930B20919E0730919F078217930751F072
S1130BB0FA01E855FA4FC08390939D0780939C07F0
S1130BC00E94B704CF9108950F931F93CF938C0184
S1130BD0C0E003C00E94AE05CF5FF801EC0FF11D29
S1130BE080818111F7CF8DE00E94AE058AE00E94DA
S1130BF0AE050E94B704CF911F910F9108951F92E3
S1130C000F920FB60F9211242F933F934F935F933C
S1130C106F937F938F939F93AF93BF93EF93FF93C0
S1130C20CF93DF93CDB7DEB7C055D109DEBFCDBFBB
S1130C300E946005E091F007F091F107E056F84F4B
S1130C4080818A30E9F581E00E94AB050E94550558
S1130C50833511F08235A1F50E945D05BE016F5FF9
S1130C607F4F0E94DD03CE0101960E94E40568EEE9
S1130C7073E0CE0101960E94E706892B51F40E948D
S1130C80A4008DEE93E00E94E40580E00E94AB0591
S1130C9017C06EE474E0CE0101960E94E706892B2A
S1130CA079F484E594E00E94E4050E94A40080E0C5
S1130CB090E00E945D000E94D00380E00E94AB059A
S1130CC00E946A05C05BDF4F0FB6F894DEBF0FBE0B
S1130CD0CDBFDF91CF91FF91EF91BF91AF919F91E4
S1130CE08F917F916F915F914F913F912F910F90D1
S1130CF00FBE0F901F9018950F931F93CF938C01E5
S1130D00C0E003C00E94AE05CF5FF801EC0FF11DF7
S1130D1080818111F7CF0E94B704CF911F910F9169
S1130D200895052E97FB1EF400940E94A80657FD13
S1130D3007D00E94C50607FC03D04EF40C94A80605
S1130D4050954095309521953F4F4F4F5F4F0895F3
S1130D5090958095709561957F4F8F4F9F4F089523
S1130D60EE0FFF1F0590F491E02D0994A29FB001AE
S1130D70B39FC001A39F700D811D1124911DB29FCB
S1130D80700D811D1124911D0895A1E21A2EAA1B34
S1130D90BB1BFD010DC0AA1FBB1FEE1FFF1FA21727
S1130DA0B307E407F50720F0A21BB30BE40BF50B24
S1130DB0661F771F881F991F1A9469F760957095AD
S1130DC0809590959B01AC01BD01CF010895FB0175
S1130DD0DC018D91019080190110D9F3990B0895CC
S1130DE0FB01DC014150504030F08D91019080199D
S1130DF019F40020B9F7881B990B0895F894FFCFD4
S1130E0001710180018E019801A7011402E7026BB0
S1130E100306011501260137014A015D01720188AB
S1130E20019F01B801D201EE010B022A024B026EAE
S1130E30029302BA02E40210033E037003A403DC2B
S1130E4003170455049704DC0427057505C8052019
S1130E50067C06E0064907B8072D08AA082D09B93B
S1130E60094D0AEA0A900B400CF80CC00D900E6F65
S1130E700F303A2054686553696D70736F6E730058
S1130E80313A204D697373696F6E496D7000323A5F
S1130E90204261746D616E00333A2050696E6B704C
S1130EA0616E746865720054686553696D70736F20
S1130EB06E733A643D342C6F3D352C623D313630CF
S1130EC03A632E362C65362C6623362C3861362C44
S1130ED0672E362C65362C63362C38612C38662305
S1130EE02C3866232C3866232C32672C38702C3827
S1130EF0702C3866232C3866232C3866232C3867EC
S1130F002C61232E2C3863362C3863362C38633608
S1130F102C6336004D697373696F6E496D703A6462
S1130F203D342C6F3D362C623D3135303A313664D8
S1130F30352C31366423352C313664352C31366406
S1130F4023352C313664352C31366423352C313637
S1130F5064352C313664352C31366423352C3136E6
S1130F6065352C313666352C31366623352C3136D1
S1130F7067352C3867352C34702C3867352C347031
S1130F802C386123352C38702C3863362C38702C6F
S1130F903867352C34702C3867352C34702C38660F
S1130FA0352C38702C38702C3867352C34702C3430
S1130FB0702C386123352C38702C3863362C3870FB
S1130FC02C3867352C34702C34702C3866352C381A
S1130FD0702C386623352C38702C386123352C3826
S1130FE067352C316435004261746D616E3A643D3D
S1130FF0382C6F3D352C623D3136303A3136612C18
S1131000313667232C3136672C313666232C313642
S1131010662C313666232C3136672C313667232C07
S113102034612E2C702C642C642C63232C63232CAD
S1131030632C632C63232C63232C642C642C632384
S11310402C63232C632C632C63232C63232C642CAC
S1131050642C63232C63232C632C632C63232C6365
S1131060232C67362C702C3467360050696E6B70F5
S1131070616E746865723A643D31362C6F3D352C6F
S1131080623D3136303A3864232C38652C32702C6A
S11310903866232C38672C32702C3864232C38653E
S11310A02C702C3866232C38672C702C3863362C23
S11310B038622C702C3864232C38652C702C3862E0
S11310C02C3261232C32702C612C672C652C642CFF
S11310D03265000900504C415900506C6179696EC9
S11310E06720736F6E670A0053544F500053746F38
S11310F07070656420736F6E670A004E554D00531F
S11311006F6E672073656C65637465642000496E57
S1131110677265736520756E206E756D65726F20DC
S1131120616465637561646F00436F6D6D616E64C6
S11311302075736167653A204E554D205B6E756D61
S1131140626572206F6620736F6E675D0A00524598
S113115053455400524553455454494E47207379DE
S11311607374656D0A00436F6D616E646F206E6FFA
S113117020656E636F6E747261646F0D0A002020C7
S113118020203D3D3E2052455345543A2052656946
S11311906E6963696120656C2073697374656D6140
S11311A020616C2065737461646F20696E69636982
S11311B0616C0A00202020203D3D3E204E554D3AD2
S11311C0204E756D65726F2064652063616E63697E
S11311D06F6E20612073656C656363696F6E617205
S11311E0206465206C61206C69737461205B31201C
S11311F061204E5D00202020203D3D3E2053544F71
S1131200503A2044657469656E65206C612072658E
S113121070726F64756363696F6E2064656C2073AC
S11312206F6E69646F20656E20637572736F002042
S11312302020203D3D3E20504C41593A20526570BB
S1131240726F64756365206C612063616E63696F9E
S11312506E2073656C656363696F6E6164610043DE
S11312606F6D616E646F733A0043616E63696F6E94
S113127065733A004269656E76656E69646F2061D4
S11312806C2073656C6563746F7220646520726989
S10F12906E67746F6E657321200A000005
S9030000FC
