S01700004763634170706C69636174696F6E312E737265635B
S11300000C943B000C9458000C9458000C94580029
S11300100C9458000C9458000C9458000C945800FC
S11300200C9458000C9458000C9458000C945800EC
S11300300C9458000C9458000C9427030C9458000A
S11300400C9458000C9458000C945A050C94DD053B
S11300500C9458000C9458000C9458000C945800BC
S11300600C9458000C945800760278027A026E02BE
S113007070027202740211241FBECFEFD8E0DEBFFB
S1130080CDBF14E0A0E0B1E0ECEFFCE002C00590CD
S11300900D92AA3BB107D9F727E0AAEBB4E001C05F
S11300A01D92AD3EB207E1F70E9457030C947C0603
S11300B00C940000E82FF0E0EE0FFF1FEF5FFE4FFF
S11300C0808191819093BB048093BA0408959093A6
S11300D0C3048093C20408959093BD048093BC0428
S11300E008958091C2049091C30408959C014091A5
S11300F0BC045091BD04452B21F090910001911155
S1130100F6CF7093C3046093C204E0E8F0E080810A
S11301108064808340E050E060E072E18AE790E030
S11301200E940F06215031093093890020938800E2
S113013081E090E09093BD048093BC0408951092F4
S113014000011092BD041092BC04E0E8F0E080814C
S11301508F7B80830895FF920F93CF93DF9381E089
S11301608093000184E08093C1048FE390E0909336
S1130170C0048093BF0486E08093C40405C0319614
S1130180F093BB04E093BA04E091BA04F091BB0489
S113019080818A3321F0809100018111F0CF319662
S11301A0F093BB04E093BA0451C1843609F05CC0F7
S11301B01092C1043196F093BB04E093BA0405C0D5
S11301C03196F093BB04E093BA04E091BA04F09141
S11301D0BB0480818D3351F4809100018111F0CFF3
S11301E005C03196F093BB04E093BA04E091BA04DD
S11301F0F091BB048081803221F49091000191112F
S1130200F0CF80538A3010F48093C1049F012F5F94
S11302103F4F3093BB042093BA04818190ED980F33
S11302209A30B8F49091C104990F492F440F440FA8
S1130230940F890F80538093C1042F5F3F4F3093F5
S1130240BB042093BA0405C03196F093BB04E09339
S1130250BA04E091BA04F091BB0480818C3221F499
S1130260809100018111F0CFE091BA04F091BB04B8
S113027080818F3609F044C01092C4043196F09303
S1130280BB04E093BA0405C03196F093BB04E09339
S1130290BA04E091BA04F091BB0480818D3351F427
S11302A0809100018111F0CF05C03196F093BB0419
S11302B0E093BA04E091BA04F091BB0480818032E7
S11302C021F4909100019111F0CF80538A3010F401
S11302D08093C4043196F093BB04E093BA0405C040
S11302E03196F093BB04E093BA04E091BA04F09120
S11302F0BB0480818C3221F4809100018111F0CF04
S1130300E091BA04F091BB048081823609F093C075
S11303101092C0041092BF043196F093BB04E09392
S1130320BA0405C03196F093BB04E093BA04E0919B
S1130330BA04F091BB0480818D3351F480910001A3
S11303408111F0CF05C03196F093BB04E093BA0459
S1130350E091BA04F091BB048081803221F4909141
S113036000019111F0CF90ED980F9A3030F490E0A5
S1130370C0979093C0048093BF04DF011196B0939B
S1130380BB04A093BA04418180ED840F8A3008F045
S113039041C02091BF043091C004C901880F991F46
S11303A0220F331F220F331F220F331F820F931F7D
S11303B0840F911DC0979093C0048093BF049D0146
S11303C02F5F3F4F3093BB042093BA0411964C9196
S11303D050ED540F5A30F0F4BC01660F771F880FAC
S11303E0991F880F991F880F991F860F971F840FD5
S11303F0911DC0979093C0048093BF042F5F3F4F1B
S11304003093BB042093BA0405C03196F093BB0427
S1130410E093BA04E091BA04F091BB0480818C3279
S113042051F4809100018111F0CF05C03196F09311
S1130430BB04E093BA04E091BA04F091BB04808158
S11304408C3221F4809100018111F0CFE091BA0443
S1130450F091BB0480818A3321F0909100019111C5
S1130460A4CE3196F093BB04E093BA04E0C0C091EB
S1130470C4040091C10480538A30E0F4AF014F5F9B
S11304805F4F5093BB044093BA04918120ED290F30
S11304902A3078F4880F082F000F000F800F082FE0
S11304A0090F00534F5F5F4F5093BB044093BA044E
S11304B001C0082F2091BA043091BB04D901EC91FA
S11304C08E2F90E0FC01E156F109E730F10520F4AC
S11304D0EC5CFF4F0C942E06DFEF0DC0D2E00BC096
S11304E0D4E009C0D5E007C0D7E005C0D9E003C017
S11304F0DBE001C0D0E0C90101969093BB04809376
S1130500BA04F9012181233231F4DF5F019690931B
S1130510BB048093BA04E091BA04F091BB048081D7
S11305208E3241F43196F093BB04E093BA04FF2475
S1130530F39401C0F12CE091BA04F091BB048081E2
S113054080538A3030F43196F093BB04E093BA04BC
S1130550C82FE091BA04F091BB0480818E3269F413
S11305603196F093BB04E093BA04FF24F39405C0DE
S11305703196F093BB04E093BA04E091BA04F0918D
S1130580BB0480818C3221F4809100018111F0CF71
S11305902091BF043091C00440E050E060E67AEE60
S11305A080E090E00E940F06CA01B901202F30E0DC
S11305B040E050E00E940F06220F331F220F331F2A
S11305C0FF2039F0B901660F771F260F371F3695C4
S11305D02795DF3FC1F08C2F90E00497FC01EE0FCC
S11305E0FF1FE80FF91FEE0FFF1FEE0FFF1FED0FA8
S11305F0F11DEE0FFF1FE95FFE4FB901808191816C
S11306000E9476000AC03093C3042093C20481E0A0
S113061090E09093BD048093BC048091BC049091BD
S1130620BD04892B21F0809100018111F6CFE09166
S1130630BA04F091BB048081882321F090910001D9
S1130640911115CFDF91CF910F91FF9008951F92D3
S11306500F920FB60F9211242F933F934F935F93F2
S11306606F937F938F939F93AF93BF93EF93FF9376
S11306700E947100009721F001970E94670006C054
S11306801092800080E090E00E946C00FF91EF9156
S1130690BF91AF919F918F917F916F915F914F9196
S11306A03F912F910F900FBE0F901F90189588EFD8
S11306B087BD82E084BD93E095BD80936E00E0E841
S11306C0F0E0808180648083E1E8F0E080818960EB
S11306D0808384B1826084B90E94870487E60E9483
S11306E05F040E9469040E947B040E948104789440
S11306F00E9498030E9487030E941F058130E1F73E
S113070080E00E9422050E943B047894F5CF83E5A3
S113071094E00E94410581E294E00E94410588EE44
S113072093E00E9441058AEB93E00E9441050895FD
S11307308BE794E00E9441050895CF92DF92EF92F7
S1130740FF920F931F93CF93DF938C017B01C0E043
S1130750D0E00AC06E019FEFC91AD90ACE0DDF1D81
S113076088830E94DF04E601F801EE56FE4F0190F3
S1130770F081E02DE00FF11F80818D3059F70E9448
S1130780DF040E94DF04CE0DDF1D1882DF91CF91BC
S11307901F910F91FF90EF90DF90CF9008950F93EA
S11307A01F93CF93DF9300D0CDB7DEB78C016BE2FC
S11307B073E00E946506892B39F480E393E00E947C
S11307C041050E94AB0050C06EE373E0C8010E9473
S11307D06506892B39F40E949F0083E493E00E940C
S11307E0410542C043E050E061E573E0C8010E9466
S11307F06E06892B11F5F80183818032C9F4858155
S1130800811116C01A8219828481898310ED180F10
S113081085E593E00E94BC05CE0101960E94410546
S113082088EB93E00E944105812F0E945A001CC06E
S113083085E693E00E94410517C06AE873E0C801A9
S11308400E946506892B61F480E993E00E944105CA
S11308500E949F0080E00E945A000E94870304C007
S113086082EA93E00E9441050F900F90DF91CF91AF
S11308701F910F910895CF93DF93CDB7DEB7C05981
S1130880D1400FB6F894DEBF0FBECDBF0E94A604C0
S1130890BE016F5F7F4F0E949D03CE0101960E94AF
S11308A04105CE0101960E94CF03C057DE4F0FB61B
S11308B0F894DEBF0FBECDBFDF91CF9108951092A3
S11308C0C10096E09093C2001092C5008093C400CA
S11308D00895E1ECF0E08081886080830895E1EC84
S11308E0F0E08081806280830895E1ECF0E0808113
S11308F08F7D80830895E1ECF0E0808180618083C6
S11309000895E1ECF0E0808180688083089510927E
S113091056061092550610925806109257061092D9
S1130920EA071092E9071092EC071092EB0708957A
S1130930E82FF0E0EB53FB4F80810895E091EB0743
S1130940F091EC07E75AF94F8081089589E596E024
S11309500895E091E907F091EA078091C600E75A0B
S1130960F94F808308958091570608951092580690
S11309701092570610925606109255060895E9EE05
S1130980F7E0408151814F5F5F4F9A013295229584
S11309902F7023273F702327AEE3BAE00E9434066A
S11309A020E931E0BC01629FC001639F900D729FFA
S11309B0900D1124481B590B518340830895EBEE8D
S11309C0F7E0408151814F5F5F4F9A013295229544
S11309D02F7023273F702327AEE3BAE00E9434062A
S11309E020E931E0BC01629FC001639F900D729FBA
S11309F0900D1124481B590B518340830895E7E55A
S1130A00F6E0408151814F5F5F4F9A013295229504
S1130A102F7023273F702327AEE3BAE00E943406E9
S1130A2020E931E0BC01629FC001639F900D729F79
S1130A30900D1124481B590B5183408308958091D4
S1130A40BE0408958093BE040895CF932091550663
S1130A50309156062039314088F4C82F0E9475041D
S1130A60E5E5F6E080819181DC01AB53BB4FCC938B
S1130A700196918380830E946F0401C08FEFCF9110
S1130A8008950F931F93CF938C01C0E003C00E947D
S1130A902505CF5FF801EC0FF11D80818111F7CF9F
S1130AA08DE00E9425058AE00E942505CF911F91C3
S1130AB00F9108951F920F920FB60F9211242F9346
S1130AC03F934F935F936F937F938F939F93AF93D2
S1130AD0BF93EF93FF93CF93DF93CDB7DEB7C059A6
S1130AE0D140DEBFCDBF0E94A904E091E907F09197
S1130AF0EA07E75AF94F80818A3011F581E0809343
S1130B00BE040E949E048335D9F40E94A604BE014B
S1130B106F5F7F4F0E949D03CE0101960E944105A5
S1130B206EE373E0CE0101960E946506892B41F4C1
S1130B300E949F0083E493E00E9441051092BE044A
S1130B400E94BF04C057DE4F0FB6F894DEBF0FBE3D
S1130B50CDBFDF91CF91FF91EF91BF91AF919F9165
S1130B608F917F916F915F914F913F912F910F9052
S1130B700FBE0F901F9018950F931F93CF938C0166
S1130B80C0E003C00E942505CF5FF801EC0FF11D02
S1130B9080818111F7CFCF911F910F9108954091DA
S1130BA0570650915806209155063091560681E01B
S1130BB04217530708F080E008951F920F920FB672
S1130BC00F9211242F933F934F935F936F937F93CF
S1130BD08F939F93AF93BF93EF93FF930E94B304BC
S1130BE00E9498048093C6000E94FF040E94CF05CF
S1130BF0811104C00E94B6040E947504FF91EF9114
S1130C00BF91AF919F918F917F916F915F914F9120
S1130C103F912F910F900FBE0F901F901895052EA6
S1130C2097FB1EF400940E94260657FD07D00E94ED
S1130C30430607FC03D04EF40C94260650954095C9
S1130C40309521953F4F4F4F5F4F08959095809574
S1130C50709561957F4F8F4F9F4F0895EE0FFF1F43
S1130C600590F491E02D0994A29FB001B39FC001B7
S1130C70A39F700D811D1124911DB29F700D811DC4
S1130C801124911D0895A1E21A2EAA1BBB1BFD017C
S1130C900DC0AA1FBB1FEE1FFF1FA217B307E40757
S1130CA0F50720F0A21BB30BE40BF50B661F771FAF
S1130CB0881F991F1A9469F760957095809590958F
S1130CC09B01AC01BD01CF010895FB01DC018D91B5
S1130CD0019080190110D9F3990B0895FB01DC01EF
S1130CE04150504030F08D910190801919F400204A
S10F0CF0B9F7881B990B0895F894FFCF06
S1130CFC016701D401A70206011501260137014A37
S1130D0C015D01720188019F01B801D201EE010B52
S1130D1C022A024B026E029302BA02E40210033E50
S1130D2C037003A403DC03170455049704DC0427A1
S1130D3C057505C80520067C06E0064907B8072D8D
S1130D4C08AA082D09B9094D0AEA0A900B400CF8B7
S1130D5C0CC00D900E6F0F54686553696D70736FF2
S1130D6C6E733A643D342C6F3D352C623D31363014
S1130D7C3A632E362C65362C6623362C3861362C89
S1130D8C672E362C65362C63362C38612C3866234A
S1130D9C2C3866232C3866232C32672C38702C386C
S1130DAC702C3866232C3866232C3866232C386731
S1130DBC2C61232E2C3863362C3863362C3863364E
S1130DCC2C6336004D697373696F6E496D703A64A8
S1130DDC3D342C6F3D362C623D3135303A3136641E
S1130DEC352C31366423352C313664352C3136644C
S1130DFC23352C313664352C31366423352C31367D
S1130E0C64352C313664352C31366423352C31362B
S1130E1C65352C313666352C31366623352C313616
S1130E2C67352C3867352C34702C3867352C347076
S1130E3C2C386123352C38702C3863362C38702CB4
S1130E4C3867352C34702C3867352C34702C386654
S1130E5C352C38702C38702C3867352C34702C3475
S1130E6C702C386123352C38702C3863362C387040
S1130E7C2C3867352C34702C34702C3866352C385F
S1130E8C702C386623352C38702C386123352C386B
S1130E9C67352C316435004261746D616E3A643D82
S1130EAC382C6F3D352C623D3136303A3136612C5D
S1130EBC313667232C3136672C313666232C313688
S1130ECC662C313666232C3136672C313667232C4D
S1130EDC34612E2C702C642C642C63232C63232CF3
S1130EEC632C632C63232C63232C642C642C6323CA
S1130EFC2C63232C632C632C63232C63232C642CF2
S1130F0C642C63232C63232C632C632C63232C63AA
S1130F1C232C67362C702C34673600504C41590006
S1130F2C506C6179696E6720736F6E670A00535455
S1130F3C4F500053746F7070656420736F6E670A42
S1130F4C004E554D00536F6E672073656C6563746A
S1130F5C65643A2000436F6D6D616E642075736136
S1130F6C67653A204E554D205B6E756D6265722037
S1130F7C6F6620736F6E675D0A00524553455400CB
S1130F8C524553455454494E472073797374656DD7
S1130F9C0A00436F6D616E646F206E6F20656E6323
S1130FAC6F6E747261646F0D0A0052455345543A66
S1130FBC205265696E6963696120656C207369737D
S1130FCC74656D6120616C2065737461646F206954
S1130FDC6E696369616C0A004E554D3A204E756D0D
S1130FEC65726F2064652063616E63696F6E206146
S1130FFC2073656C656363696F6E61722064652030
S113100C6C61206C69737461205B312061204E5DCE
S113101C0053544F503A2044657469656E65206CD6
S113102C6120726570726F64756363696F6E20649E
S113103C656C20736F6E69646F20656E20637572C6
S113104C736F00504C41593A20526570726F64753D
S113105C6365206C612063616E63696F6E207365D8
S113106C6C656363696F6E616461004269656E7679
S113107C656E69646F20616C2073656C6563746F55
S113108C722064652072696E67746F6E65732120BB
S113109C43616E63696F6E657320646973706F6E00
S10D10AC69626C65733A200A0000C3
S9030000FC
