S01700004763634170706C69636174696F6E312E737265635B
S11300000C943B000C9458000C9458000C94580029
S11300100C9458000C9458000C9458000C945800FC
S11300200C9458000C9458000C9458000C945800EC
S11300300C9458000C9458000C9429030C94580008
S11300400C9458000C9458000C947E050C949C0459
S11300500C9458000C9458000C9458000C945800BC
S11300600C9458000C94580078027A027C027002B6
S113007072027402760211241FBECFEFD8E0DEBFF5
S1130080CDBF15E0A0E0B1E0E0EFFCE002C00590D8
S11300900D92A238B107D9F727E0A2E8B5E001C074
S11300A01D92AB3BB207E1F70E9459030C9476060C
S11300B00C94000080910101909102010895E82FB1
S11300C0F0E0EE0FFF1FED5FFE4F80819181909372
S11300D0830580938205089590938B0580938A0508
S11300E008959093850580938405089580918A05E9
S11300F090918B0508959C0140918405509185054C
S1130100452B21F0909100019111F6CF70938B054E
S113011060938A05E0E8F0E080818064808340E0B9
S113012050E060E072E18AE790E00E940906215005
S11301303109309389002093880081E090E0909306
S11301408505809384050895109200011092850519
S113015010928405E0E8F0E080818F7B808308952D
S1130160FF920F93CF93DF9384E0809389058FE30D
S113017090E0909388058093870586E080938C05B2
S113018005C03196F0938305E0938205E0918205E2
S1130190F091830580818A3321F0809100018111DF
S11301A0F0CF3196F0938305E093820551C18436F4
S11301B009F05CC0109289053196F0938305E093B1
S11301C0820505C03196F0938305E0938205E091A2
S11301D08205F091830580818D3351F48091000173
S11301E08111F0CF05C03196F0938305E093820529
S11301F0E0918205F09183058081803221F4909111
S113020000019111F0CF80538A3010F48093890556
S11302109F012F5F3F4F3093830520938205818197
S113022090ED980F9A30B8F490918905990F492F61
S1130230440F440F940F890F8053809389052F5FD7
S11302403F4F309383052093820505C03196F09388
S11302508305E0938205E0918205F0918305808116
S11302608C3221F4809100018111F0CFE09182055C
S1130270F091830580818F3609F044C010928C057B
S11302803196F0938305E093820505C03196F0938F
S11302908305E0938205E0918205F09183058081D6
S11302A08D3351F4809100018111F0CF05C0319656
S11302B0F0938305E0938205E0918205F091830534
S11302C08081803221F4909100019111F0CF80530C
S11302D08A3010F480938C053196F0938305E09373
S11302E0820505C03196F0938305E0938205E09181
S11302F08205F091830580818C3221F48091000184
S11303008111F0CFE0918205F091830580818236DE
S113031009F093C010928805109287053196F093E6
S11303208305E093820505C03196F0938305E0933D
S11303308205E0918205F091830580818D3351F42B
S1130340809100018111F0CF05C03196F0938305AF
S1130350E0938205E0918205F091830580818032EB
S113036021F4909100019111F0CF90ED980F9A3003
S113037030F490E0C0979093880580938705DF015F
S11303801196B0938305A0938205418180ED840F7B
S11303908A3008F041C02091870530918805C90151
S11303A0880F991F220F331F220F331F220F331F71
S11303B0820F931F840F911DC0979093880580939B
S11303C087059D012F5F3F4F30938305209382055E
S11303D011964C9150ED540F5A30F0F4BC01660F55
S11303E0771F880F991F880F991F880F991F860FF1
S11303F0971F840F911DC09790938805809387055C
S11304002F5F3F4F309383052093820505C03196BB
S1130410F0938305E0938205E0918205F0918305D2
S113042080818C3251F4809100018111F0CF05C09C
S11304303196F0938305E0938205E0918205F09173
S1130440830580818C3221F4809100018111F0CFE9
S1130450E0918205F091830580818A3321F09091A7
S113046000019111A4CE3196F0938305E0938205A7
S1130470E0C0C0918C050091890580538A30E0F476
S1130480AF014F5F5F4F5093830540938205918185
S113049020ED290F2A3078F4880F082F000F000F61
S11304A0800F082F090F00534F5F5F4F5093830550
S11304B04093820501C0082F209182053091830565
S11304C0D901EC918E2F90E0FC01E156F109E7305F
S11304D0F10520F4EC5CFF4F0C942806DFEF0DC00F
S11304E0D2E00BC0D4E009C0D5E007C0D7E005C016
S11304F0D9E003C0DBE001C0D0E0C90101969093CC
S1130500830580938205F9012181233231F4DF5F71
S113051001969093830580938205E0918205F09182
S1130520830580818E3241F43196F0938305E09304
S11305308205FF24F39401C0F12CE0918205F0912F
S11305408305808180538A3030F43196F09383059B
S1130550E0938205C82FE0918205F09183058081A4
S11305608E3269F43196F0938305E0938205FF247B
S1130570F39405C03196F0938305E0938205E091EE
S11305808205F091830580818C3221F480910001F1
S11305908111F0CF209187053091880540E050E02B
S11305A060E67AEE80E090E00E940906CA01B90193
S11305B0202F30E040E050E00E940906220F331F54
S11305C0220F331FFF2039F0B901660F771F260F62
S11305D0371F36952795DF3FC1F08C2F90E00497A5
S11305E0FC01EE0FFF1FE80FF91FEE0FFF1FEE0FC8
S11305F0FF1FED0FF11DEE0FFF1FE75FFE4FB90167
S1130600808191810E947B000AC030938B052093E6
S11306108A0581E090E0909385058093840580911C
S1130620840590918505892B21F080910001811129
S1130630F6CFE0918205F09183058081882321F033
S113064090910001911115CFDF91CF910F91FF90FF
S113065008951F920F920FB60F9211242F933F9378
S11306604F935F936F937F938F939F93AF93BF93B6
S1130670EF93FF930E947600009721F001970E9468
S11306806C0006C01092800080E090E00E9471002F
S1130690FF91EF91BF91AF919F918F917F916F9156
S11306A05F914F913F912F910F900FBE0F901F902C
S11306B0189588EF87BD82E084BD93E095BD809353
S11306C06E00E0E8F0E0808180648083E1E8F0E09F
S11306D080818960808384B1826084B90E94E2044D
S11306E087E690E00E9474040E947E040E949004B5
S11306F00E9496040E94A1030E94900378940E9491
S113070040050197E1F780E090E00E9443050E94D4
S113071050047894F4CF0E945A000E94630508950F
S113072084E195E00E9463058AED94E00E946305EC
S113073089E994E00E94630583E694E00E946305DE
S1130740089584E495E00E9463050E948B0381E68A
S113075094E00E9463058AEC93E00E946305089587
S1130760CF92DF92EF92FF920F931F93CF93DF9379
S11307708C017B01C0E0D0E00AC06E019FEFC91A72
S1130780D90ACE0DDF1D88830E942405E601F801F5
S1130790EA59FF4F0190F081E02DE00FF11F8081B5
S11307A08D3059F70E9424050E942405CE0DDF1DCB
S11307B01882DF91CF911F910F91FF90EF90DF90FE
S11307C0CF9008950F931F93CF93DF9300D0CDB7AD
S11307D0DEB78C0164ED73E00E945F06892B39F467
S11307E089ED93E00E9463050E94B00052C067EE59
S11307F073E0C8010E945F06892B39F40E94A400AB
S11308008CEE93E00E94630544C043E050E06AEF3D
S113081073E0C8010E946806892B19F5F8018381E9
S11308208032D1F48581811117C01A8219828481A2
S1130830898310ED180F8EEF93E00E94E005CE013E
S113084001960E94630581E694E00E946305812F6E
S113085090E00E945F001DC08EE094E00E9463055A
S113086018C063E374E0C8010E945F06892B69F431
S113087089E394E00E9463050E94A40080E090E074
S11308800E945F000E94900304C08BE494E00E94E5
S113089063050F900F90DF91CF911F910F910895F1
S11308A0CF93DF93CDB7DEB7C456D1090FB6F89412
S11308B0DEBF0FBECDBF0E94FB04BE016F5F7F4F42
S11308C00E94B003CE0101960E946305CE010196F9
S11308D00E94E203CC59DF4F0FB6F894DEBF0FBE7F
S11308E0CDBFDF91CF9108951092C10096E090930F
S11308F0C2001092C5008093C4000895E1ECF0E0BA
S11309008081886080830895E1ECF0E080818062DA
S113091080830895E1ECF0E080818F7D80830895E9
S1130920E1ECF0E08081806180830895E1ECF0E007
S113093080818068808308951F920F920FB60F9272
S113094011242F933F934F935F936F937F938F93D0
S11309509F93AF93BF93EF93FF93209151073091EF
S11309605207C90162EC71E00E94F50540914F07FE
S1130970509150078417950719F40E948A0411C0F6
S1130980F901E357FA4F80818093C600E1E5F7E06F
S113099080819181019662EC71E00E94F50591835A
S11309A08083FF91EF91BF91AF919F918F917F9140
S11309B06F915F914F913F912F910F900FBE0F90C8
S11309C01F9018951092500710924F0710925207DB
S11309D0109251071092B8071092B7071092BA07F5
S11309E01092B9070895E091B907F091BA07ED5A4A
S11309F0F84F8081089583E597E00895E091B70763
S1130A00F091B8078091C600ED5AF84F808308959D
S1130A10E7EBF7E0408151814F5F5F4F9A013695D4
S1130A20279536952795ABE7B4E10E942E06969557
S1130A30879564E6689F9001699F300D1124421BDD
S1130A40530B518340830895E9EBF7E040815181D2
S1130A504F5F5F4F9A013695279536952795ABE7FB
S1130A60B4E10E942E069695879564E6689F9001EE
S1130A70699F300D1124421B530B51834083089509
S1130A80809186050895809386050895482F2091C6
S1130A904F0730915007C901019662EC71E00E9442
S1130AA0F50560915107709152078617970751F029
S1130AB0F901E357FA4F40839093500780934F070F
S1130AC00E94840408950F931F93CF938C01C0E078
S1130AD003C00E944605CF5FF801EC0FF11D808131
S1130AE08111F7CF8DE00E9446058AE00E944605F9
S1130AF00E948404CF911F910F9108951F920F9229
S1130B000FB60F9211242F933F934F935F936F93DC
S1130B107F938F939F93AF93BF93EF93FF93CF9361
S1130B20DF93CDB7DEB7C456D109DEBFCDBF0E9477
S1130B30FE04E091B707F091B807ED5AF84F8081B1
S1130B408A3011F581E0809386050E94F304833591
S1130B50D9F40E94FB04BE016F5F7F4F0E94B00373
S1130B60CE0101960E94630567EE73E0CE01019603
S1130B700E945F06892B41F40E94A4008CEE93E04E
S1130B800E946305109286050E940805CC59DF4F28
S1130B900FB6F894DEBF0FBECDBFDF91CF91FF91AA
S1130BA0EF91BF91AF919F918F917F916F915F91E1
S1130BB04F913F912F910F900FBE0F901F9018955A
S1130BC00F931F93CF938C01C0E003C00E9446058E
S1130BD0CF5FF801EC0FF11D80818111F7CF0E94E6
S1130BE08404CF911F910F910895AA1BBB1B51E15F
S1130BF007C0AA1FBB1FA617B70710F0A61BB70B89
S1130C00881F991F5A95A9F780959095BC01CD012D
S1130C100895052E97FB1EF400940E94200657FDAC
S1130C2007D00E943D0607FC03D04EF40C94200626
S1130C3050954095309521953F4F4F4F5F4F089504
S1130C4090958095709561957F4F8F4F9F4F089534
S1130C50EE0FFF1F0590F491E02D0994A29FB001BF
S1130C60B39FC001A39F700D811D1124911DB29FDC
S1130C70700D811D1124911D0895A1E21A2EAA1B45
S1130C80BB1BFD010DC0AA1FBB1FEE1FFF1FA21738
S1130C90B307E407F50720F0A21BB30BE40BF50B35
S1130CA0661F771F881F991F1A9469F760957095BE
S1130CB0809590959B01AC01BD01CF010895FB0186
S1130CC0DC018D91019080190110D9F3990B0895DD
S1130CD0FB01DC014150504030F08D9101908019AE
S1130CE019F40020B9F7881B990B0895F894FFCFE5
S1130CF00169019F010C02DF02060115012601377B
S1130D00014A015D01720188019F01B801D201EE1F
S1130D10010B022A024B026E029302BA02E4021091
S1130D20033E037003A403DC03170455049704DC97
S1130D300427057505C80520067C06E0064907B8A2
S1130D40072D08AA082D09B9094D0AEA0A900B4093
S1130D500CF80CC00D900E6F0F303A205468655398
S1130D60696D70736F6E730A313A204D69737369DC
S1130D706F6E496D700A323A204261746D616E0A79
S1130D80333A2050696E6B70616E746865720054FA
S1130D90686553696D70736F6E733A643D342C6F7C
S1130DA03D352C623D3136303A632E362C65362C77
S1130DB06623362C3861362C672E362C65362C6328
S1130DC0362C38612C3866232C3866232C3866235D
S1130DD02C32672C38702C38702C3866232C3866EB
S1130DE0232C3866232C38672C61232E2C38633649
S1130DF02C3863362C3863362C6336004D69737394
S1130E00696F6E496D703A643D342C6F3D362C62C7
S1130E103D3135303A313664352C31366423352C46
S1130E20313664352C31366423352C313664352C17
S1130E3031366423352C313664352C313664352C07
S1130E4031366423352C313665352C313666352CF4
S1130E5031366623352C313667352C3867352C34DA
S1130E60702C3867352C34702C386123352C38704D
S1130E702C3863362C38702C3867352C34702C3869
S1130E8067352C34702C3866352C38702C38702C1F
S1130E903867352C34702C34702C386123352C3859
S1130EA0702C3863362C38702C3867352C34702C01
S1130EB034702C3866352C38702C386623352C3831
S1130EC0702C386123352C3867352C316435004259
S1130ED061746D616E3A643D382C6F3D352C623D12
S1130EE03136303A3136612C313667232C3136674E
S1130EF02C313666232C3136662C313666232C3160
S1130F0036672C313667232C34612E2C702C642CDC
S1130F10642C63232C63232C632C632C63232C63A6
S1130F20232C642C642C63232C63232C632C632CCC
S1130F3063232C63232C642C642C63232C63232CC5
S1130F40632C632C63232C63232C67362C702C3482
S1130F50673650696E6B70616E746865723A643D91
S1130F6031362C6F3D352C623D3136303A386423AE
S1130F702C38652C32702C3866232C38672C327050
S1130F802C3864232C38652C702C3866232C386755
S1130F902C702C3863362C38622C702C3864232C3B
S1130FA038652C702C38622C3261232C32702C6101
S1130FB02C672C652C642C326500436F6D616E6464
S1130FC06F733A00504C415900506C6179696E67F7
S1130FD020736F6E670A0053544F500053746F7040
S1130FE070656420736F6E670A004E554D00536F31
S1130FF06E672073656C65637465643A2000436FA3
S11310006D6D616E642075736167653A204E554D50
S1131010205B6E756D626572206F6620736F6E67FC
S11310205D0A0052455345540052455345545449B2
S11310304E472073797374656D0A00436F6D616E5A
S1131040646F206E6F20656E636F6E747261646F7F
S11310500D0A00202020203D3D3E2052455345549A
S11310603A205265696E6963696120656C20736911
S11310707374656D6120616C2065737461646F20A5
S1131080696E696369616C0A00202020203D3D3E41
S1131090204E554D3A204E756D65726F2064652063
S11310A063616E63696F6E20612073656C65636351
S11310B0696F6E6172206465206C61206C69737461
S11310C061205B312061204E5D00202020203D3DC9
S11310D03E2053544F503A2044657469656E652030
S11310E06C6120726570726F64756363696F6E20E2
S11310F064656C20736F6E69646F20656E20637520
S113110072736F00202020203D3D3E20504C4159F9
S11311103A20526570726F64756365206C61206358
S1131120616E63696F6E2073656C656363696F6E6E
S1131130616461004269656E76656E69646F206101
S11311406C2073656C6563746F72206465207269CA
S11311506E67746F6E6573212043616E63696F6E91
S1131160657320646973706F6E69626C65733A208D
S10511700A006F
S9030000FC
