S01700004763634170706C69636174696F6E312E737265635B
S11300000C943B000C9458000C9458000C94580029
S11300100C9458000C9458000C9458000C945800FC
S11300200C9458000C9458000C9458000C945800EC
S11300300C9458000C9458000C9436030C945800FB
S11300400C9458000C9458000C9469050C94050603
S11300500C9458000C9458000C9458000C945800BC
S11300600C9458000C9458008502870289027D0282
S11300707F028102830211241FBECFEFD8E0DEBFCE
S1130080CDBF14E0A0E0B1E0ECE4FDE002C00590D7
S11300900D92AA3BB107D9F727E0AAEBB4E001C05F
S11300A01D92AE3EB207E1F70E9466030C94A406CB
S11300B00C9400008093BA04E82FF0E0EE0FFF1FC9
S11300C0EF5FFE4F808191819093BC048093BB04C9
S11300D008959093C4048093C30408959093BE0438
S11300E08093BD0408958091C3049091C40408953D
S11300F09C014091BD045091BE04452B21F0909188
S113010000019111F6CF7093C4046093C304E0E836
S1130110F0E080818064808340E050E060E072E140
S11301208AE790E00E943706215031093093890014
S11301302093880081E090E09093BE048093BD04F6
S11301400895109200011092BE041092BD04E0E8DC
S1130150F0E080818F7B80830895FF920F93CF938B
S1130160DF9381E080930001E091BA04F0E0EE0FA8
S1130170FF1FEF5FFE4F808191819093BC048093B9
S1130180BB0484E08093C2048FE390E09093C104A5
S11301908093C00486E08093C50405C03196F09333
S11301A0BC04E093BB04E091BB04F091BC048081E7
S11301B08A3321F0809100018111F0CF3196F093C0
S11301C0BC04E093BB0451C1843609F05CC01092B6
S11301D0C2043196F093BC04E093BB0405C031968D
S11301E0F093BC04E093BB04E091BB04F091BC0425
S11301F080818D3351F4809100018111F0CF05C0CD
S11302003196F093BC04E093BB04E091BB04F091FD
S1130210BC048081803221F4909100019111F0CFCF
S113022080538A3010F48093C2049F012F5F3F4FA4
S11302303093BC042093BB04818190ED980F9A30D5
S1130240B8F49091C204990F492F440F440F940FAE
S1130250890F80538093C2042F5F3F4F3093BC04B7
S11302602093BB0405C03196F093BC04E093BB0417
S1130270E091BB04F091BC0480818C3221F4809124
S113028000018111F0CFE091BB04F091BC048081A6
S11302908F3609F044C01092C5043196F093BC0423
S11302A0E093BB0405C03196F093BC04E093BB0417
S11302B0E091BB04F091BC0480818D3351F48091B2
S11302C000018111F0CF05C03196F093BC04E09396
S11302D0BB04E091BB04F091BC048081803221F422
S11302E0909100019111F0CF80538A3010F48093E3
S11302F0C5043196F093BC04E093BB0405C0319669
S1130300F093BC04E093BB04E091BB04F091BC0403
S113031080818C3221F4809100018111F0CFE09131
S1130320BB04F091BC048081823609F093C0109222
S1130330C1041092C0043196F093BC04E093BB0452
S113034005C03196F093BC04E093BB04E091BB0478
S1130350F091BC0480818D3351F4809100018111AE
S1130360F0CF05C03196F093BC04E093BB04E09158
S1130370BB04F091BC048081803221F4909100018F
S11303809111F0CF90ED980F9A3030F490E0C0972F
S11303909093C1048093C004DF011196B093BC0410
S11303A0A093BB04418180ED840F8A3008F041C0E2
S11303B02091C0043091C104C901880F991F220FF4
S11303C0331F220F331F220F331F820F931F840FFB
S11303D0911DC0979093C1048093C0049D012F5F29
S11303E03F4F3093BC042093BB0411964C9150EDC5
S11303F0540F5A30F0F4BC01660F771F880F991F11
S1130400880F991F880F991F860F971F840F911DBE
S1130410C0979093C1048093C0042F5F3F4F3093E3
S1130420BC042093BB0405C03196F093BC04E09354
S1130430BB04E091BB04F091BC0480818C3251F484
S1130440809100018111F0CF05C03196F093BC0476
S1130450E093BB04E091BB04F091BC0480818C3236
S113046021F4809100018111F0CFE091BB04F0915F
S1130470BC0480818A3321F0909100019111A4CEB3
S11304803196F093BC04E093BB04E0C0C091C50472
S11304900091C20480538A30E0F4AF014F5F5F4F94
S11304A05093BC044093BB04918120ED290F2A3062
S11304B078F4880F082F000F000F800F082F090F02
S11304C000534F5F5F4F5093BC044093BB0401C083
S11304D0082F2091BB043091BC04D901EC918E2FDC
S11304E090E0FC01E156F109E730F10520F4EC5C01
S11304F0FF4F0C945606DFEF0DC0D2E00BC0D4E0E2
S113050009C0D5E007C0D7E005C0D9E003C0DBE0EF
S113051001C0D0E0C90101969093BC048093BB0450
S1130520F9012181233231F4DF5F01969093BC04F9
S11305308093BB04E091BB04F091BC0480818E32B3
S113054041F43196F093BC04E093BB04FF24F3948C
S113055001C0F12CE091BB04F091BC048081805374
S11305608A3030F43196F093BC04E093BB04C82F76
S1130570E091BB04F091BC0480818E3269F4319621
S1130580F093BC04E093BB04FF24F39405C03196BC
S1130590F093BC04E093BB04E091BB04F091BC0471
S11305A080818C3221F4809100018111F0CF20915F
S11305B0C0043091C10440E050E060E67AEE80E08F
S11305C090E00E943706CA01B901202F30E040E0D4
S11305D050E00E943706220F331F220F331FFF20E3
S11305E039F0B901660F771F260F371F3695279507
S11305F0DF3FC1F08C2F90E00497FC01EE0FFF1F4A
S1130600E80FF91FEE0FFF1FEE0FFF1FED0FF11D97
S1130610EE0FFF1FE95FFE4FB901808191810E94B7
S113062078000AC03093C4042093C30481E090E0AE
S11306309093BE048093BD048091BD049091BE0448
S1130640892B21F0809100018111F6CFE091BB0448
S1130650F091BC048081882321F0909100019111D4
S113066015CFDF91CF910F91FF9008951F920F92B4
S11306700FB60F9211242F933F934F935F936F9371
S11306807F938F939F93AF93BF93EF93FF930E94B6
S11306907300009721F001970E94690006C0109230
S11306A0800080E090E00E946E00FF91EF91BF9186
S11306B0AF919F918F917F916F915F914F913F91F6
S11306C02F910F900FBE0F901F90189588EF87BD44
S11306D082E084BD93E095BD80936E00E0E8F0E095
S11306E0808180648083E1E8F0E080818960808398
S11306F084B1826084B90E94960487E60E946E04E5
S11307000E9478040E948A040E94900478940E94B3
S1130710A7030E9496030E942E058130E1F780E032
S11307200E9431050E944A047894F5CF83E594E051
S11307300E94500581E294E00E94500588EE93E007
S11307400E9450058AEB93E00E94500508958BE7C0
S113075094E00E9450050895CF92DF92EF92FF92A9
S11307600F931F93CF93DF938C017B01C0E0D0E004
S11307700AC06E019FEFC91AD90ACE0DDF1D888306
S11307800E94EE04E601F801EE56FE4F0190F0815E
S1130790E02DE00FF11F80818D3059F70E94EE04A7
S11307A00E94EE04CE0DDF1D1882DF91CF911F91C0
S11307B00F91FF90EF90DF90CF9008950F931F93C8
S11307C0CF93DF9300D0CDB7DEB78C016BE273E03B
S11307D00E948D06892B39F480E393E00E94500532
S11307E00E94AD0050C06EE373E0C8010E948D0604
S11307F0892B39F40E94A10083E493E00E94500500
S113080042C043E050E061E573E0C8010E949606EF
S1130810892B11F5F80183818032C9F48581811116
S113082016C01A8219828481898310ED180F85E518
S113083093E00E94E405CE0101960E94500588EBE6
S113084093E00E945005812F0E945A001CC085E647
S113085093E00E94500517C06AE873E0C8010E9443
S11308608D06892B61F480E993E00E9450050E9473
S1130870A10080E00E945A000E94960304C082EA0C
S113088093E00E9450050F900F90DF91CF911F913C
S11308900F910895CF93DF93CDB7DEB7C059D14000
S11308A00FB6F894DEBF0FBECDBF0E94B504BE01E3
S11308B06F5F7F4F0E94AC03CE0101960E945005EA
S11308C0CE0101960E94DE03C057DE4F0FB6F894A6
S11308D0DEBF0FBECDBFDF91CF9108951092C1004E
S11308E096E09093C2001092C5008093C4000895CE
S11308F0E1ECF0E08081886080830895E1ECF0E031
S11309008081806280830895E1ECF0E080818F7DB6
S113091080830895E1ECF0E0808180618083089514
S1130920E1ECF0E08081806880830895109257069E
S11309301092560610925906109258061092EB0720
S11309401092EA071092ED071092EC070895E82F31
S1130950F0E0EA53FB4F80810895E091EC07F091B9
S1130960ED07E65AF94F808108958AE596E00895E7
S1130970E091EA07F091EB078091C600E65AF94F3F
S11309808083089580915806089510925906109214
S1130990580610925706109256060895EAEEF7E0AC
S11309A0408151814F5F5F4F9A01329522952F709C
S11309B023273F702327AEE3BAE00E945C0620E9B8
S11309C031E0BC01629FC001639F900D729F900D46
S11309D01124481B590B518340830895ECEEF7E032
S11309E0408151814F5F5F4F9A01329522952F705C
S11309F023273F702327AEE3BAE00E945C0620E978
S1130A0031E0BC01629FC001639F900D729F900D05
S1130A101124481B590B518340830895E8E5F6E0FF
S1130A20408151814F5F5F4F9A01329522952F701B
S1130A3023273F702327AEE3BAE00E945C0620E937
S1130A4031E0BC01629FC001639F900D729F900DC5
S1130A501124481B590B5183408308958091BF048E
S1130A6008958093BF040895CF9320915606309142
S1130A7057062039314088F4C82F0E948404E6E5E3
S1130A80F6E080819181DC01AA53BB4FCC9301969F
S1130A90918380830E947E0401C08FEFCF910895DB
S1130AA00F931F93CF938C01C0E003C00E943405C1
S1130AB0CF5FF801EC0FF11D80818111F7CF8DE03C
S1130AC00E9434058AE00E943405CF911F910F9152
S1130AD008951F920F920FB60F9211242F933F93F4
S1130AE04F935F936F937F938F939F93AF93BF9332
S1130AF0EF93FF93CF93DF93CDB7DEB7C059D140C7
S1130B00DEBFCDBF0E94B804E091EA07F091EB0785
S1130B10E65AF94F80818A30D9F581E08093BF0489
S1130B200E94AD04833511F0823591F50E94B5041D
S1130B30BE016F5F7F4F0E94AC03CE0101960E94FD
S1130B4050056EE373E0CE0101960E948D06892B59
S1130B5049F40E94A10083E493E00E94500510929E
S1130B60BF0416C06AE873E0CE0101960E948D06A8
S1130B70892B71F480E993E00E9450050E94A10042
S1130B8080E090E00E945A000E9496031092BF04F5
S1130B900E94CE04C057DE4F0FB6F894DEBF0FBEDE
S1130BA0CDBFDF91CF91FF91EF91BF91AF919F9115
S1130BB08F917F916F915F914F913F912F910F9002
S1130BC00FBE0F901F9018950F931F93CF938C0116
S1130BD0C0E003C00E943405CF5FF801EC0FF11DA3
S1130BE080818111F7CFCF911F910F91089540918A
S1130BF0580650915906209156063091570681E0C7
S1130C004217530708F080E008951F920F920FB621
S1130C100F9211242F933F934F935F936F937F937E
S1130C208F939F93AF93BF93EF93FF930E94C2045C
S1130C300E94A7048093C6000E940E050E94F70537
S1130C40811104C00E94C5040E948404FF91EF91A5
S1130C50BF91AF919F918F917F916F915F914F91D0
S1130C603F912F910F900FBE0F901F901895052E56
S1130C7097FB1EF400940E944E0657FD07D00E9475
S1130C806B0607FC03D04EF40C944E065095409529
S1130C90309521953F4F4F4F5F4F08959095809524
S1130CA0709561957F4F8F4F9F4F0895EE0FFF1FF3
S1130CB00590F491E02D0994A29FB001B39FC00167
S1130CC0A39F700D811D1124911DB29F700D811D74
S1130CD01124911D0895A1E21A2EAA1BBB1BFD012C
S1130CE00DC0AA1FBB1FEE1FFF1FA217B307E40707
S1130CF0F50720F0A21BB30BE40BF50B661F771F5F
S1130D00881F991F1A9469F760957095809590953E
S1130D109B01AC01BD01CF010895FB01DC018D9164
S1130D20019080190110D9F3990B0895FB01DC019E
S1130D304150504030F08D910190801919F40020F9
S10F0D40B9F7881B990B0895F894FFCFB5
S1130D4C016701D401A70206011501260137014AE6
S1130D5C015D01720188019F01B801D201EE010B02
S1130D6C022A024B026E029302BA02E40210033E00
S1130D7C037003A403DC03170455049704DC042751
S1130D8C057505C80520067C06E0064907B8072D3D
S1130D9C08AA082D09B9094D0AEA0A900B400CF867
S1130DAC0CC00D900E6F0F54686553696D70736FA2
S1130DBC6E733A643D342C6F3D352C623D313630C4
S1130DCC3A632E362C65362C6623362C3861362C39
S1130DDC672E362C65362C63362C38612C386623FA
S1130DEC2C3866232C3866232C32672C38702C381C
S1130DFC702C3866232C3866232C3866232C3867E1
S1130E0C2C61232E2C3863362C3863362C386336FD
S1130E1C2C6336004D697373696F6E496D703A6457
S1130E2C3D342C6F3D362C623D3135303A313664CD
S1130E3C352C31366423352C313664352C313664FB
S1130E4C23352C313664352C31366423352C31362C
S1130E5C64352C313664352C31366423352C3136DB
S1130E6C65352C313666352C31366623352C3136C6
S1130E7C67352C3867352C34702C3867352C347026
S1130E8C2C386123352C38702C3863362C38702C64
S1130E9C3867352C34702C3867352C34702C386604
S1130EAC352C38702C38702C3867352C34702C3425
S1130EBC702C386123352C38702C3863362C3870F0
S1130ECC2C3867352C34702C34702C3866352C380F
S1130EDC702C386623352C38702C386123352C381B
S1130EEC67352C316435004261746D616E3A643D32
S1130EFC382C6F3D352C623D3136303A3136612C0D
S1130F0C313667232C3136672C313666232C313637
S1130F1C662C313666232C3136672C313667232CFC
S1130F2C34612E2C702C642C642C63232C63232CA2
S1130F3C632C632C63232C63232C642C642C632379
S1130F4C2C63232C632C632C63232C63232C642CA1
S1130F5C642C63232C63232C632C632C63232C635A
S1130F6C232C67362C702C34673600504C415900B6
S1130F7C506C6179696E6720736F6E670A00535405
S1130F8C4F500053746F7070656420736F6E670AF2
S1130F9C004E554D00536F6E672073656C6563741A
S1130FAC65643A2000436F6D6D616E6420757361E6
S1130FBC67653A204E554D205B6E756D62657220E7
S1130FCC6F6620736F6E675D0A005245534554007B
S1130FDC524553455454494E472073797374656D87
S1130FEC0A00436F6D616E646F206E6F20656E63D3
S1130FFC6F6E747261646F0D0A0052455345543A16
S113100C205265696E6963696120656C207369732C
S113101C74656D6120616C2065737461646F206903
S113102C6E696369616C0A004E554D3A204E756DBC
S113103C65726F2064652063616E63696F6E2061F5
S113104C2073656C656363696F6E617220646520DF
S113105C6C61206C69737461205B312061204E5D7E
S113106C0053544F503A2044657469656E65206C86
S113107C6120726570726F64756363696F6E20644E
S113108C656C20736F6E69646F20656E2063757276
S113109C736F00504C41593A20526570726F6475ED
S11310AC6365206C612063616E63696F6E20736588
S11310BC6C656363696F6E616461004269656E7629
S11310CC656E69646F20616C2073656C6563746F05
S11310DC722064652072696E67746F6E657321206B
S11310EC43616E63696F6E657320646973706F6EB0
S10D10FC69626C65733A200A000073
S9030000FC
