S01700004763634170706C69636174696F6E312E737265635B
S11300000C9444000C9461000C9461000C94610005
S11300100C9461000C9461000C9461000C946100D8
S11300200C9461000C9461000C9461000C946100C8
S11300300C9461000C9461000C94F6040C9461001F
S11300400C9461000C9461000C9413060C948A06C1
S11300500C9461000C9461000C9461000C94610098
S11300600C9461000C9461006B026F0258025B02F5
S11300705F026302670276027602760276027602F5
S1130080760276027602730211241FBECFEFD8E007
S1130090DEBFCDBF16E0A0E0B1E0EAE5FEE002C0BD
S11300A005900D92A635B107D9F728E0A6E5B6E08C
S11300B001C01D92AA3CB207E1F70E9475030C949B
S11300C02B070C9400004091580650915906452B7B
S11300D0D1F77093640660936306E0E8F0E0208152
S11300E0206420839C0140E050E060E072E18AE7F4
S11300F090E00E94BE06215031093093890020937C
S1130100880081E090E09093590680935806089502
S1130110109257061092590610925806E0E8F0E043
S113012080818F7B8083089581E080935706E091DE
S11301305606F0E0EE0FFF1FE85FFE4F80819181CD
S11301409093600680935F0605C03196F093600635
S1130150E0935F06E0915F06F091600680818A3348
S1130160A1F73196F0936006E0935F063FC180816A
S1130170843609F055C0109262063196F0936006F9
S1130180E0935F0605C03196F0936006E0935F0646
S1130190E0915F06F091600680818D33A1F305C084
S11301A03196F0936006E0935F06E0915F06F0916C
S11301B0600680818032A1F38081803338F08081B1
S11301C08A3320F48081805380936206CF010196A4
S11301D09093600680935F0621812033D0F02181C3
S11301E02A33B8F4318120916206220F422F440F42
S11301F0440F240F230F20532093620601969093FB
S1130200600680935F0605C03196F0936006E09324
S11302105F06E0915F06F091600680818C32A1F365
S1130220E0915F06F091600680818F36E9F51092C7
S113023069063196F0936006E0935F0605C0319637
S1130240F0936006E0935F06E0915F06F09160062C
S113025080818D33A1F305C03196F0936006E0935D
S11302605F06E0915F06F091600680818032A1F321
S11302708081803338F080818A3320F480818053F8
S1130280809369063196F0936006E0935F0605C09B
S11302903196F0936006E0935F06E0915F06F0917B
S11302A0600680818C32A1F3E0915F06F0916006D4
S11302B08081823609F093C010925D0610925C062C
S11302C03196F0936006E0935F0605C03196F09393
S11302D06006E0935F06E0915F06F091600680811E
S11302E08D33A1F305C03196F0936006E0935F0669
S11302F0E0915F06F091600680818032A1F38081F5
S1130300803350F080818A3338F4808190E0C09744
S113031090935D0680935C06DF011196B0936006AE
S1130320A0935F068181803308F44CC081818A33B5
S113033008F048C080915C0690915D069C01220FF4
S1130340331F880F991F880F991F880F991F820FD9
S1130350931F2181820F911DC09790935D06809316
S11303605C069D012F5F3F4F3093600620935F062C
S113037011964C911197403328F111964C91119795
S11303804A3300F5AC01440F551F880F991F880F9D
S1130390991F880F991F840F951F11964C91840FF4
S11303A0911DC09790935D0680935C062F5F3F4F2D
S11303B03093600620935F0605C03196F093600683
S11303C0E0935F06E0915F06F091600680818C32D5
S11303D0A1F305C03196F0936006E0935F06E091C7
S11303E05F06F091600680818C32A1F3E0915F0694
S11303F0F091600680818A3309F0B9CE3196F0938A
S11304006006E0935F0608950F93CF93DF93E09126
S11304105F06F09160068081882309F427C18091EA
S11304205706882309F422C18FEF80935E068091DA
S11304306906809366068091620680936506109231
S113044061068081803318F180818A3300F5DF01F1
S11304508D91805380936506B0936006A0935F06E8
S113046081818033A0F081818A3388F4809165068C
S11304709181880F282F220F220F820F890F80531A
S1130480809365061196B0936006A0935F06C091B1
S11304905F06D0916006E8818E2F90E0FC01E15662
S11304A0F109E031F10510F5EC5CFF4F0C94DD0629
S11304B010925E061BC082E080935E0617C084E043
S11304C080935E0613C085E080935E060FC087E0CC
S11304D080935E060BC089E080935E0607C08BE0C4
S11304E080935E0603C08FEF80935E06CE01019673
S11304F09093600680935F062981233251F4209102
S11305005E062F5F20935E060196909360068093AB
S11305105F06E0915F06F091600680818E3241F4BF
S113052081E0809361063196F0936006E0935F0664
S1130530E0915F06F09160068081803358F08081FD
S11305408A3340F48191805380936606F093600669
S1130550E0935F06E0915F06F091600680818E3241
S113056071F481E0809361063196F0936006E09324
S11305705F0605C03196F0936006E0935F06E09154
S11305805F06F091600680818C32A1F320915C06B5
S113059030915D0640E050E060E67AEE80E090E065
S11305A00E94BE06CA01B90100916506202F30E001
S11305B040E050E00E94BE06309368062093670630
S11305C08091670690916806880F991F880F991F7C
S11305D0909368068093670680916106882379F07A
S11305E080916706909168069C01220F331F820F49
S11305F0931F9695879590936806809367068091DC
S11306005E068F3FF1F060916706709168068091F5
S1130610660690E0049720915E06FC01EE0FFF1F32
S1130620E80FF91FEE0FFF1FEE0FFF1FE20FF11D82
S1130630EE0FFF1FE05FFE4F808191810E946300F7
S11306400EC080916706909168069093640680932B
S1130650630681E090E09093590680935806809158
S1130660580690915906892BD1F702C0109257066B
S1130670DF91CF910F91089580E091E008958093E8
S11306805606E82FF0E0EE0FFF1FE85FFE4F808173
S113069091819093600680935F0608959093640619
S11306A0809363060895909359068093580608959D
S11306B08091630690916406089580915706089589
S11306C0E0915606F0E0EE0FFF1FE050FF4F8081EF
S11306D09181089583B7817F83BF83B7816083BF8E
S11306E0889583B78E7F83BF08950E9426050E9454
S11306F02F050E943D0587E60E94C8040E94D2048B
S11307000E94E4040E94EA040E94DE0378940E949A
S1130710DB05892B49F00E94F0040E94E0050E9449
S1130720EA040E94A10406C00E945D03813011F412
S11307300E9404020E946A03EACF0F931F93CF938F
S1130740DF9384E296E00E9487050E943C038C01BB
S1130750C0E0D0E016C083E294E00E94A0058C2F94
S1130760805D0E944E0587E394E00E94A005FE018F
S1130770EE0FFF1FE00FF11F808191810E9487051A
S11307802196C430D1053CF3DF91CF911F910F9195
S113079008958AE196E00E9487058AEE95E00E941A
S11307A0870580EB95E00E9487058FE695E00E941F
S11307B0870589E395E00E94870508958FE296E016
S11307C00E9487050E949D0385E694E00E94A0058F
S11307D00E94C9030895CF92DF92EF92FF920F9384
S11307E01F93CF93DF938C017B01C0E0D0E00AC05C
S11307F06E019FEFC91AD90ACE0DDF1D88830E94AE
S11308004B06E601F801EA59FF4F0190F081E02D13
S1130810E00FF11F80818D3059F70E944B060E9432
S11308204B06CE0DDF1D1882DF91CF911F910F91E2
S1130830FF90EF90DF90CF900895CF93DF93EC017A
S113084065E274E00E941407892B79F40E949400F5
S11308508AE294E00E94A0050E9460030E94A00521
S113086084E694E00E94870569C043E050E06AE3AF
S113087074E0CE010E941D07892B91F50E945D034F
S1130880882329F08EE394E00E94870557C08B816A
S1130890803209F58D8181111EC08C818053843092
S11308A078F40E943F0387E694E00E94A0050E942A
S11308B060030E94870585E694E00E94A0053EC07F
S11308C087E794E00E9487050E949D0385E694E0F3
S11308D00E94870533C082E994E00E9487052EC0F8
S11308E06CEB74E0CE010E941407892B81F40E9402
S11308F05D03882329F081EC94E00E94870504C0FD
S113090088ED94E00E9487050E94880017C068EF74
S113091074E0CE010E941407892B61F48EEF94E0F9
S11309200E9487050E94880080E00E943F030E9485
S1130930DE0304C08AE195E00E948705DF91CF9130
S11309400895CF93DF93CDB7DEB7C456D1090FB660
S1130950F894DEBF0FBECDBF0E94EA05BE016F5FF3
S11309607F4F0E94EB03CE0101960E948705898187
S1130970882321F0CE0101960E941D04CC59DF4F3B
S11309800FB6F894DEBF0FBECDBFDF91CF910895AF
S11309901092C10096E09093C2001092C50080931B
S11309A0C4000895E1ECF0E08081886080830895BC
S11309B0E1ECF0E08081806280830895E1ECF0E076
S11309C080818F7D80830895E1ECF0E080818061F7
S11309D080830895E1ECF0E080818068808308954D
S11309E0E1ECF0E080818F77808308951F920F926D
S11309F00FB60F9211242F933F934F935F936F93EE
S1130A007F938F939F93AF93BF93EF93FF930E9432
S1130A105803009721F001970E944E0306C01092DC
S1130A20800080E090E00E945303FF91EF91BF911A
S1130A30AF919F918F917F916F915F914F913F9172
S1130A402F910F900FBE0F901F90189588EF87BDC0
S1130A5082E084BD93E095BD80936E000895E0E844
S1130A60F0E0808180648083E1E8F0E08081896047
S1130A70808384B1826084B9089510925F081092D3
S1130A805E0810926108109260081092C7081092D4
S1130A90C6081092C9081092C8080895CF93C82FA9
S1130AA040915E0850915F08FA0131969F01369596
S1130AB0279536952795A5ECB0E20E94E30692951A
S1130AC082958F7089279F70892764EF71E0869FD4
S1130AD09001879F300D969F300D1124CF01821B0A
S1130AE0930B20916008309161088217930761F09D
S1130AF0FA01E659F94FC08390935F0880935E082A
S1130B000E94D80480E001C081E0CF9108950F9342
S1130B101F93CF938C01C0E003C00E944E05CF5FAA
S1130B20F801EC0FF11D80818111F7CF8DE00E9457
S1130B304E058AE00E944E05CF911F910F910895B2
S1130B400F931F93CF938C01C0E003C00E944E0506
S1130B50CF5FF801EC0FF11D80818111F7CFCF91A8
S1130B601F910F9108954091600850916108E091A0
S1130B705E08F0915F089A0136952795369527957A
S1130B80A5ECB0E20E94E306929582958F708927C6
S1130B909F70892764EF71E0869F9001879F300DD5
S1130BA0969F300D1124421B530B81E04E175F07B3
S1130BB009F080E0089580915A0690915B060895AB
S1130BC080915A0690915B06019790935B068093FF
S1130BD05A06089582E698E00895E091C608F091D7
S1130BE0C7088091C600EE59F74F80830895E6EC5C
S1130BF0F8E0408151814F5F5F4F9A013695279508
S1130C0036952795ABE7B4E10E94E3069695879560
S1130C1064E6689F9001699F300D1124421B530BB9
S1130C205183408308951F920F920FB60F9211249F
S1130C302F933F934F935F936F937F938F939F93E0
S1130C40AF93BF93EF93FF930E94ED05E091C60825
S1130C50F091C708EE59F74F80818A3049F48091AA
S1130C605A0690915B06019690935B0680935A0610
S1130C700E94F705FF91EF91BF91AF919F918F91E2
S1130C807F916F915F914F913F912F910F900FBE84
S1130C900F901F901895E8ECF8E0408151814F5F68
S1130CA05F4F9A013695279536952795ABE7B4E1C2
S1130CB00E94E3069695879564E6689F9001699F74
S1130CC0300D1124421B530B518340830895E0E6F9
S1130CD0F8E0408151814F5F5F4F9A013695279527
S1130CE036952795A5ECB0E20E94E306929582958D
S1130CF08F7089279F70892764EF71E0869F900128
S1130D00879F300D969F300D1124421B530B518346
S1130D10408308951F920F920FB60F9211242F93C0
S1130D203F934F935F936F937F938F939F93AF936F
S1130D30BF93EF93FF930E94B305813019F40E948F
S1130D40DE040BC0E0916008F0916108E659F94FA8
S1130D5080818093C6000E946706FF91EF91BF9146
S1130D60AF919F918F917F916F915F914F913F913F
S1130D702F910F900FBE0F901F901895052E97FB83
S1130D801EF400940E94D50657FD07D00E94F20677
S1130D9007FC03D04EF40C94D5065095409530953D
S1130DA021953F4F4F4F5F4F0895909580957095D3
S1130DB061957F4F8F4F9F4F0895EE0FFF1F059052
S1130DC0F491E02D0994A29FB001B39FC001A39FA9
S1130DD0700D811D1124911DB29F700D811D112470
S1130DE0911D0895A1E21A2EAA1BBB1BFD010DC083
S1130DF0AA1FBB1FEE1FFF1FA217B307E407F507C7
S1130E0020F0A21BB30BE40BF50B661F771F881FA2
S1130E10991F1A9469F760957095809590959B0138
S1130E20AC01BD01CF010895FB01DC018D9101905E
S1130E3080190110D9F3990B0895FB01DC0141508D
S1130E40504030F08D910190801919F40020B9F7C9
S10D0E50881B990B0895F894FFCF56
S1130E5A70017D018E019C01A4011102E402A60322
S1130E6A06011501260137014A015D017201880153
S1130E7A9F01B801D201EE010B022A024B026E0253
S1130E8A9302BA02E40210033E037003A403DC03D0
S1130E9A170455049704DC0427057505C8052006BC
S1130EAA7C06E0064907B8072D08AA082D09B909DE
S1130EBA4D0AEA0A900B400CF80CC00D900E6F0F05
S1130ECA4C6F732053696D70736F6E73004D697341
S1130EDA696F6E20496D706F7369626C6500496E43
S1130EEA6469616E61204A6F6E65730057616E6E44
S1130EFA6162650054686553696D70736F6E733A05
S1130F0A643D342C6F3D352C623D3136303A632EC4
S1130F1A362C65362C6623362C3861362C672E36E9
S1130F2A2C65362C63362C38612C3866232C3866AB
S1130F3A232C3866232C32672C38702C38702C38C2
S1130F4A66232C3866232C3866232C38672C6123B5
S1130F5A2E2C3863362C3863362C3863362C633699
S1130F6A004D697373696F6E496D703A643D342C30
S1130F7A6F3D362C623D3135303A313664352C3189
S1130F8A366423352C313664352C31366423352CBA
S1130F9A313664352C31366423352C313664352C9C
S1130FAA313664352C31366423352C313665352C8B
S1130FBA313666352C31366623352C313667352C75
S1130FCA3867352C34702C3867352C34702C3861DA
S1130FDA23352C38702C3863362C38702C38673506
S1130FEA2C34702C3867352C34702C3866352C38F0
S1130FFA702C38702C3867352C34702C34702C389B
S113100A6123352C38702C3863362C38702C3867A9
S113101A352C34702C34702C3866352C38702C38B6
S113102A6623352C38702C386123352C3867352CD7
S113103A31643500496E6469616E613A643D342CE9
S113104A6F3D352C623D3235303A652C38702C3878
S113105A662C38672C38702C3163362C38702E2C59
S113106A642C38702C38652C31662C702E2C672C25
S113107A38702C38612C38622C38702C3166362C36
S113108A702C612C38702C38622C3263362C326402
S113109A362C3265362C652C38702C38662C386719
S11310AA2C38702C3163362C702C64362C38702C06
S11310BA3865362C31662E362C672C38702C3867F6
S11310CA2C652E362C38702C64362C38702C3867E4
S11310DA2C652E362C38702C64362C38702C3867D4
S11310EA2C662E362C38702C65362C38702C3864C5
S11310FA362C3263360057616E6E6162653A643D1E
S113110A342C6F3D352C623D3132353A3136672CF9
S113111A3136672C3136672C3136672C38672C38D0
S113112A612C38672C38652C38702C3136632C3195
S113113A36642C3136632C38642C38642C38632C8E
S113114A652C702C38672C38672C38672C38612C3E
S113115A38672C38652C38702C63362C3863362C57
S113116A38622C38672C38612C3136622C3136615E
S113117A2C67000900504C415900526570726F6423
S113118A756369656E646F3A20004E554D00455289
S113119A524F523A2048617920756E612063616E1C
S11311AA63696F6E20656E20726570726F64756311
S11311BA63696F6E0D0A0053652073656C6563631A
S11311CA696F6E6F3A2000496E67726573652075A0
S11311DA6E206E756D65726F2061646563756164F6
S11311EA6F0055736F2064656C20636F6D616E6464
S11311FA6F3A204E554D205B6E756D65726F206493
S113120A652063616E63696F6E5D0A0053544F50C3
S113121A00526570726F64756363696F6E206465EA
S113122A74656E6964610A004E6F2068617920638F
S113123A616E63696F6E20656E20726570726F6489
S113124A756363696F6E0A005245534554005265CB
S113125A65737461626C656369656E646F20656C3D
S113126A2073697374656D610A004552524F523A8C
S113127A20436F6D616E646F206E6F20656E636FBD
S113128A6E747261646F0D0A00202020203D3D3E79
S113129A2052455345543A205265696E696369611F
S11312AA20656C2073697374656D6120616C2065B7
S11312BA737461646F20696E696369616C0A0020E2
S11312CA2020203D3D3E204E554D3A204E756D65F9
S11312DA726F2064652063616E63696F6E2061209A
S11312EA73656C656363696F6E6172206465206CF3
S11312FA61206C69737461205B312061204E5D004A
S113130A202020203D3D3E2053544F503A2044652E
S113131A7469656E65206C6120726570726F64759C
S113132A6363696F6E2064656C20736F6E69646FA2
S113133A20656E20637572736F00202020203D3D66
S113134A3E20504C41593A20526570726F6475635D
S113135A65206C612063616E63696F6E2073656CCE
S113136A656363696F6E61646100436F6D616E6486
S113137A6F733A0043616E63696F6E65733A004234
S113138A69656E76656E69646F20616C2073656C3D
S113139A6563746F722064652072696E67746F6E18
S10913AA657321200A0016
S9030000FC
