S01700004763634170706C69636174696F6E312E737265635B
S11300000C9434000C9451000C9451000C94510045
S11300100C9451000C9451000C9451000C94510018
S11300200C9451000C9451000C9451000C94510008
S11300300C9451000C9451000C9462000C945100E7
S11300400C9451000C9451000C9451000C949200A7
S11300500C9451000C9451000C9451000C945100D8
S11300600C9451000C94510011241FBECFEFD8E022
S1130070DEBFCDBF11E0A0E0B1E0E0EEF2E002C0EF
S113008005900D92AA30B107D9F724E0AAE0B1E0B7
S113009001C01D92AB33B207E1F70E94C4000C9477
S11300A06E010C9400009093100180930F01089549
S11300B090930B0180930A01089580910F01909110
S11300C0100108951F920F920FB60F9211242F93CF
S11300D03F934F935F936F937F938F939F93AF93CC
S11300E0BF93EF93FF930E945D00009721F0019767
S11300F00E94530006C01092800080E090E00E94AD
S11301005800FF91EF91BF91AF919F918F917F9193
S11301106F915F914F913F912F910F900FBE0F9070
S11301201F9018951F920F920FB60F9211242F93C0
S11301303F934F935F936F937F938F939F93AF936B
S1130140BF93EF93FF930E94FE000E94F8008093F8
S1130150C6000E9406010E946001811104C00E9431
S113016001010E94F200FF91EF91BF91AF919F9125
S11301708F917F916F915F914F913F912F910F904C
S11301800FBE0F901F90189587E60E94DC000E9416
S1130190E6000E94EC00789482E091E00E9428013D
S11301A00E943E012FEF89E698E121508040904063
S11301B0E1F700C00000F4CF1092C10096E09093E4
S11301C0C2001092C5008093C4000895E1ECF0E0F1
S11301D08081886080830895E1ECF0E08081806212
S11301E080830895E1ECF0E080818F7D8083089521
S11301F0E82FF0E0ED5EFE4F808108958091A50226
S113020008951092A6021092A5020895E5EAF2E07C
S11302108081918101969183808308958093C600A3
S113022008952091A3023091A402203991E0390766
S113023068F4F901ED5EFE4F80832F5F3F4F3093EA
S1130240A4022093A3020E94EC0008958FEF089566
S11302500F931F93CF938C01C0E003C00E94110140
S1130260CF5FF801EC0FF11D8081282F30E0205082
S11302703140A1F7CF911F910F9108958091A5026C
S11302809091A6022091A3023091A40282179307B1
S113029070F4FC01ED5EFE4F80810E940E01E5EAE0
S11302A0F2E0808191810196918380830895109278
S11302B0A6021092A5021092A4021092A30208951D
S11302C04091A5025091A6022091A3023091A4026C
S11302D081E04217530708F080E00895F894FFCFB7
S10D02E00000686F6C610D0A000055
S9030000FC
