S01700004763634170706C69636174696F6E312E737265635B
S11300000C9434000C9451000C9451000C94510045
S11300100C9451000C9451000C9451000C94510018
S11300200C9451000C9451000C9451000C94510008
S11300300C9451000C9451000C9462000C945100E7
S11300400C9451000C9451000C9451000C949200A7
S11300500C9451000C9451000C9451000C945100D8
S11300600C9451000C94510011241FBECFEFD8E022
S1130070DEBFCDBF11E0A0E0B1E0ECEEF2E002C0E3
S113008005900D92AE3FB107D9F725E0AEEFB1E090
S113009001C01D92AE32B207E1F70E94C4000C9475
S11300A074010C9400009093040280930302089559
S11300B09093FF018093FE01089580910302909133
S11300C0040208951F920F920FB60F9211242F93DA
S11300D03F934F935F936F937F938F939F93AF93CC
S11300E0BF93EF93FF930E945D00009721F0019767
S11300F00E94530006C01092800080E090E00E94AD
S11301005800FF91EF91BF91AF919F918F917F9193
S11301106F915F914F913F912F910F900FBE0F9070
S11301201F9018951F920F920FB60F9211242F93C0
S11301303F934F935F936F937F938F939F93AF936B
S1130140BF93EF93FF930E941D010E9417018093B8
S1130150C6000E9429010E946601811104C00E9408
S113016020010E940001FF91EF91BF91AF919F91F7
S11301708F917F916F915F914F913F912F910F904C
S11301800FBE0F901F9018950E94060187E60E94EB
S1130190EA000E94F400789480EC91E00E944D0102
S11301A088E991E00E944D0186E691E00E944D01AC
S11301B08DE291E00E944D0180E091E00E944D01AA
S11301C02FEF89E698E1215080409040E1F700C08C
S11301D00000F6CF1092C10096E09093C2001092F6
S11301E0C5008093C4000895E1ECF0E0808188604C
S11301F080830895E1ECF0E080818062808308953B
S1130200E1ECF0E080818F7D808308951092970364
S113021010929603109299031092980310922B0552
S113022010922A0510922D0510922C050895E82F9E
S1130230F0E0EA5FFD4F808108958091980308956E
S113024010929903109298031092970310929603B8
S11302500895E8E9F3E08081918101969183808398
S11302600895CF932091960330919703203931401C
S113027088F4C82F0E940001E6E9F3E080819181AF
S1130280DC01AA5FBD4FCC930196918380830E94C9
S1130290FA0001C08FEFCF9108950F931F93CF936E
S11302A08C01C0E003C00E943101CF5FF801EC0F64
S11302B0F11D80818111F7CF8DE00E9431018AE028
S11302C00E943101CF911F910F910895409198039D
S11302D050919903209196033091970381E042173E
S10F02E0530708F080E00895F894FFCF65
S11302EC52455345543A205265696E6963696120DD
S11302FC656C2073697374656D6120616C20657322
S113030C7461646F20696E696369616C004E554D4C
S113031C3A204E756D65726F2064652063616E635F
S113032C696F6E20612073656C656363696F6E61C0
S113033C72206465206C61206C69737461205B317C
S113034C2061204E5D0053544F503A20446574692B
S113035C656E65206C6120726570726F6475636381
S113036C696F6E2064656C20736F6E69646F2065B1
S113037C6E20637572736F00504C41593A2052656C
S113038C70726F64756365206C612063616E636960
S113039C6F6E2073656C656363696F6E6164610075
S11303AC4269656E76656E69646F20616C20736555
S11303BC6C6563746F722064652072696E67746F08
S11303CC6E6573212043616E63696F6E657320647F
S11103DC6973706F6E69626C65733A2000007D
S9030000FC
