S01700004763634170706C69636174696F6E312E737265635B
S11300000C943B000C9458000C9458000C94580029
S11300100C9458000C9458000C9458000C945800FC
S11300200C9458000C9458000C9458000C945800EC
S11300300C9458000C9458000C9427030C9458000A
S11300400C9458000C9458000C944B050C94BB056C
S11300500C9458000C9458000C9458000C945800BC
S11300600C9458000C945800760278027A026E02BE
S113007070027202740211241FBECFEFD8E0DEBFFB
S1130080CDBF14E0A0E0B1E0E8EBFCE002C00590D5
S11300900D92AC3CB107D9F727E0ACECB4E001C059
S11300A01D92AF3FB207E1F70E9457030C945A0622
S11300B00C940000E82FF0E0EE0FFF1FEF5FFE4FFF
S11300C0808191819093CD048093CC040895909382
S11300D0D5048093D40408959093CF048093CE04E0
S11300E008958091D4049091D50408959C01409181
S11300F0CE045091CF04452B21F090910001911131
S1130100F6CF7093D5046093D404E0E8F0E08081E6
S11301108064808340E050E060E072E18AE790E030
S11301200E94ED0521503109309389002093880005
S113013081E090E09093CF048093CE0408951092D0
S113014000011092CF041092CE04E0E8F0E0808128
S11301508F7B80830895FF920F93CF93DF9381E089
S11301608093000184E08093D3048FE390E0909324
S1130170D2048093D10486E08093D60405C03196DE
S1130180F093CD04E093CC04E091CC04F091CD0441
S113019080818A3321F0809100018111F0CF319662
S11301A0F093CD04E093CC0451C1843609F05CC0D3
S11301B01092D3043196F093CD04E093CC0405C09F
S11301C03196F093CD04E093CC04E091CC04F0910B
S11301D0CD0480818D3351F4809100018111F0CFE1
S11301E005C03196F093CD04E093CC04E091CC04A7
S11301F0F091CD048081803221F49091000191111D
S1130200F0CF80538A3010F48093D3049F012F5F82
S11302103F4F3093CD042093CC04818190ED980F0F
S11302209A30B8F49091D304990F492F440F440F96
S1130230940F890F80538093D3042F5F3F4F3093E3
S1130240CD042093CC0405C03196F093CD04E09303
S1130250CC04E091CC04F091CD0480818C3221F463
S1130260809100018111F0CFE091CC04F091CD0494
S113027080818F3609F044C01092D6043196F093F1
S1130280CD04E093CC0405C03196F093CD04E09303
S1130290CC04E091CC04F091CD0480818D3351F4F1
S11302A0809100018111F0CF05C03196F093CD0407
S11302B0E093CC04E091CC04F091CD0480818032B1
S11302C021F4909100019111F0CF80538A3010F401
S11302D08093D6043196F093CD04E093CC0405C00A
S11302E03196F093CD04E093CC04E091CC04F091EA
S11302F0CD0480818C3221F4809100018111F0CFF2
S1130300E091CC04F091CD048081823609F093C051
S11303101092D2041092D1043196F093CD04E0935C
S1130320CC0405C03196F093CD04E093CC04E09165
S1130330CC04F091CD0480818D3351F4809100017F
S11303408111F0CF05C03196F093CD04E093CC0435
S1130350E091CC04F091CD048081803221F490911D
S113036000019111F0CF90ED980F9A3030F490E0A5
S1130370C0979093D2048093D104DF011196B09377
S1130380CD04A093CC04418180ED840F8A3008F021
S113039041C02091D1043091D204C901880F991F22
S11303A0220F331F220F331F220F331F820F931F7D
S11303B0840F911DC0979093D2048093D1049D0122
S11303C02F5F3F4F3093CD042093CC0411964C9172
S11303D050ED540F5A30F0F4BC01660F771F880FAC
S11303E0991F880F991F880F991F860F971F840FD5
S11303F0911DC0979093D2048093D1042F5F3F4FF7
S11304003093CD042093CC0405C03196F093CD04F1
S1130410E093CC04E091CC04F091CD0480818C3243
S113042051F4809100018111F0CF05C03196F09311
S1130430CD04E093CC04E091CC04F091CD04808110
S11304408C3221F4809100018111F0CFE091CC0431
S1130450F091CD0480818A3321F0909100019111B3
S1130460A4CE3196F093CD04E093CC04E0C0C091C7
S1130470D6040091D30480538A30E0F4AF014F5F77
S11304805F4F5093CD044093CC04918120ED290F0C
S11304902A3078F4880F082F000F000F800F082FE0
S11304A0090F00534F5F5F4F5093CD044093CC042A
S11304B001C0082F2091CC043091CD04D901EC91D6
S11304C08E2F90E0FC01E156F109E730F10520F4AC
S11304D0EC5CFF4F0C940C06DFEF0DC0D2E00BC0B8
S11304E0D4E009C0D5E007C0D7E005C0D9E003C017
S11304F0DBE001C0D0E0C90101969093CD04809364
S1130500CC04F9012181233231F4DF5F0196909309
S1130510CD048093CC04E091CC04F091CD0480818F
S11305208E3241F43196F093CD04E093CC04FF2451
S1130530F39401C0F12CE091CC04F091CD048081BE
S113054080538A3030F43196F093CD04E093CC0498
S1130550C82FE091CC04F091CD0480818E3269F4EF
S11305603196F093CD04E093CC04FF24F39405C0BA
S11305703196F093CD04E093CC04E091CC04F09157
S1130580CD0480818C3221F4809100018111F0CF5F
S11305902091D1043091D20440E050E060E67AEE3C
S11305A080E090E00E94ED05CA01B901202F30E0FF
S11305B040E050E00E94ED05220F331F220F331F4D
S11305C0FF2039F0B901660F771F260F371F3695C4
S11305D02795DF3FC1F08C2F90E00497FC01EE0FCC
S11305E0FF1FE80FF91FEE0FFF1FEE0FFF1FED0FA8
S11305F0F11DEE0FFF1FE95FFE4FB901808191816C
S11306000E9476000AC03093D5042093D40481E07C
S113061090E09093CF048093CE048091CE04909187
S1130620CF04892B21F0809100018111F6CFE09154
S1130630CC04F091CD048081882321F090910001B5
S1130640911115CFDF91CF910F91FF9008951F92D3
S11306500F920FB60F9211242F933F934F935F93F2
S11306606F937F938F939F93AF93BF93EF93FF9376
S11306700E947100009721F001970E94670006C054
S11306801092800080E090E00E946C00FF91EF9156
S1130690BF91AF919F918F917F916F915F914F9196
S11306A03F912F910F900FBE0F901F90189588EFD8
S11306B087BD82E084BD93E095BD80936E00E0E841
S11306C0F0E0808180648083E1E8F0E080818960EB
S11306D0808384B1826084B90E94780487E60E9492
S11306E050040E945A040E946C040E94720478947C
S11306F00E9498030E9487030E9410058130E1F74D
S113070080E00E9413050E942C047894F5CF86E6BD
S113071094E00E94320584E394E00E9432058BEF5A
S113072093E00E9432058DEC93E00E943205089517
S11307308EE894E00E9432050895CF92DF92EF9202
S1130740FF920F931F93CF93DF938C017B01C0E043
S1130750D0E00AC06E019FEFC91AD90ACE0DDF1D81
S113076088830E94D004E601F801EE56FE4F019002
S1130770F081E02DE00FF11F80818D3059F70E9448
S1130780D0040E94D004CE0DDF1D1882DF91CF91DA
S11307901F910F91FF90EF90DF90CF900895CF932A
S11307A0DF93EC016BE273E00E944306892B39F47A
S11307B080E393E00E9432050E94AB004AC06EE3DE
S11307C073E0CE010E944306892B39F40E949F00F6
S11307D083E493E00E9432053CC043E050E061E5CD
S11307E073E0CE010E944C06892BE1F485E593E089
S11307F00E9432058C81813319F0823331F00AC0B2
S113080089E593E00E94320509C089E693E00E94DD
S1130810320504C089E793E00E94320580E00E941B
S11308205A0017C06DE973E0CE010E944306892B7C
S113083061F483EA93E00E9432050E949F0081E004
S11308400E945A000E94870304C085EB93E00E9433
S11308503205DF91CF910895CF93DF93CDB7DEB703
S1130860C059D1400FB6F894DEBF0FBECDBF0E9471
S11308709704BE016F5F7F4F0E949D03CE010196D6
S11308800E943205CE0101960E94CF03C057DE4F6D
S11308900FB6F894DEBF0FBECDBFDF91CF910895A0
S11308A01092C10096E09093C2001092C50080930C
S11308B0C4000895E1ECF0E08081886080830895AD
S11308C0E1ECF0E08081806280830895E1ECF0E067
S11308D080818F7D80830895E1ECF0E080818061E8
S11308E080830895E1ECF0E080818068808308953E
S11308F0109268061092670610926A0610926906B2
S11309001092FC071092FB071092FE071092FD074D
S11309100895E82FF0E0E952FB4F80810895E091BB
S1130920FD07F091FE07E559F94F808108958BE6A4
S113093096E00895E091FB07F091FC078091C600D2
S1130940E559F94F808308958091690608951092BE
S11309506A06109269061092680610926706089556
S1130960EBEFF7E0408151814F5F5F4F9A01329581
S113097022952F7023273F702327AEE3BAE00E940D
S1130980120620E931E0BC01629FC001639F900D13
S1130990729F900D1124481B590B51834083089575
S11309A0EDEFF7E0408151814F5F5F4F9A0132953F
S11309B022952F7023273F702327AEE3BAE00E94CD
S11309C0120620E931E0BC01629FC001639F900DD3
S11309D0729F900D1124481B590B51834083089535
S11309E0E9E6F6E0408151814F5F5F4F9A0132950D
S11309F022952F7023273F702327AEE3BAE00E948D
S1130A00120620E931E0BC01629FC001639F900D92
S1130A10729F900D1124481B590B518340830895F4
S1130A208091D00408958093D0040895CF932091A9
S1130A306706309168062039314088F4C82F0E9437
S1130A406604E7E6F6E080819181DC01A952BB4FA0
S1130A50CC930196918380830E94600401C08FEF40
S1130A60CF9108950F931F93CF938C01C0E003C0DF
S1130A700E941605CF5FF801EC0FF11D80818111F2
S1130A80F7CF8DE00E9416058AE00E941605CF91EB
S1130A901F910F9108951F920F920FB60F92112478
S1130AA02F933F934F935F936F937F938F939F9372
S1130AB0AF93BF93EF93FF93CF93DF93CDB7DEB79D
S1130AC0C059D140DEBFCDBF0E949A04E091FB071C
S1130AD0F091FC07E559F94F80818A3011F581E0E6
S1130AE08093D0040E948F048335D9F40E94970424
S1130AF0BE016F5F7F4F0E949D03CE0101960E944D
S1130B0032056EE373E0CE0101960E944306892B01
S1130B1041F40E949F0083E493E00E943205109206
S1130B20D0040E94B004C057DE4F0FB6F894DEBF65
S1130B300FBECDBFDF91CF91FF91EF91BF91AF91E8
S1130B409F918F917F916F915F914F913F912F91E1
S1130B500F900FBE0F901F90189540916906509109
S1130B606A06209167063091680681E042175307B0
S1130B7008F080E008951F920F920FB60F9211248F
S1130B802F933F934F935F936F937F938F939F9391
S1130B90AF93BF93EF93FF930E94A4040E94890430
S1130BA08093C6000E94F0040E94AD05811104C028
S1130BB00E94A7040E946604FF91EF91BF91AF9138
S1130BC09F918F917F916F915F914F913F912F9161
S1130BD00F900FBE0F901F901895052E97FB1EF4D3
S1130BE000940E94040657FD07D00E94210607FCCA
S1130BF003D04EF40C9404065095409530952195FD
S1130C003F4F4F4F5F4F0895909580957095619534
S1130C107F4F8F4F9F4F0895EE0FFF1F0590F49164
S1130C20E02D0994A29FB001B39FC001A39F700D52
S1130C30811D1124911DB29F700D811D1124911DE0
S1130C400895A1E21A2EAA1BBB1BFD010DC0AA1F09
S1130C50BB1FEE1FFF1FA217B307E407F50720F021
S1130C60A21BB30BE40BF50B661F771F881F991F9C
S1130C701A9469F760957095809590959B01AC01E5
S1130C80BD01CF010895FB01DC018D910190801914
S1130C900110D9F3990B0895FB01DC014150504038
S1130CA030F08D910190801919F40020B9F7881B58
S10B0CB0990B0895F894FFCF9D
S1130CB8016701D401A70206011501260137014A7B
S1130CC8015D01720188019F01B801D201EE010B97
S1130CD8022A024B026E029302BA02E40210033E95
S1130CE8037003A403DC03170455049704DC0427E6
S1130CF8057505C80520067C06E0064907B8072DD2
S1130D0808AA082D09B9094D0AEA0A900B400CF8FB
S1130D180CC00D900E6F0F54686553696D70736F36
S1130D286E733A643D342C6F3D352C623D31363058
S1130D383A632E362C65362C6623362C3861362CCD
S1130D48672E362C65362C63362C38612C3866238E
S1130D582C3866232C3866232C32672C38702C38B0
S1130D68702C3866232C3866232C3866232C386775
S1130D782C61232E2C3863362C3863362C38633692
S1130D882C6336004D697373696F6E496D703A64EC
S1130D983D342C6F3D362C623D3135303A31366462
S1130DA8352C31366423352C313664352C31366490
S1130DB823352C313664352C31366423352C3136C1
S1130DC864352C313664352C31366423352C313670
S1130DD865352C313666352C31366623352C31365B
S1130DE867352C3867352C34702C3867352C3470BB
S1130DF82C386123352C38702C3863362C38702CF9
S1130E083867352C34702C3867352C34702C386698
S1130E18352C38702C38702C3867352C34702C34B9
S1130E28702C386123352C38702C3863362C387084
S1130E382C3867352C34702C34702C3866352C38A3
S1130E48702C386623352C38702C386123352C38AF
S1130E5867352C316435004261746D616E3A643DC6
S1130E68382C6F3D352C623D3136303A3136612CA1
S1130E78313667232C3136672C313666232C3136CC
S1130E88662C313666232C3136672C313667232C91
S1130E9834612E2C702C642C642C63232C63232C37
S1130EA8632C632C63232C63232C642C642C63230E
S1130EB82C63232C632C632C63232C63232C642C36
S1130EC8642C63232C63232C632C632C63232C63EF
S1130ED8232C67362C702C34673600504C4159004B
S1130EE8506C6179696E6720736F6E670A0053549A
S1130EF84F500053746F7070656420736F6E670A87
S1130F08004E554D006F6B0A00536520696E677279
S1130F1865736F20656C203100536520696E6772B4
S1130F2865736F20656C203200436F6D6D616E646C
S1130F382075736167653A204E554D205B6E756D5B
S1130F48626572206F6620736F6E675D0052455349
S1130F58455400524553455454494E4720737973B8
S1130F6874656D0A00436F6D616E646F206E6F2047
S1130F78656E636F6E747261646F0D0A0052455337
S1130F8845543A205265696E6963696120656C202D
S1130F9873697374656D6120616C20657374616431
S1130FA86F20696E696369616C0A004E554D3A2079
S1130FB84E756D65726F2064652063616E63696F39
S1130FC86E20612073656C656363696F6E6172205E
S1130FD86465206C61206C69737461205B312061E5
S1130FE8204E5D0053544F503A2044657469656E31
S1130FF865206C6120726570726F64756363696FD4
S11310086E2064656C20736F6E69646F20656E2052
S1131018637572736F00504C41593A20526570726F
S11310286F64756365206C612063616E63696F6EBC
S11310382073656C656363696F6E616461004269FE
S1131048656E76656E69646F20616C2073656C6586
S113105863746F722064652072696E67746F6E655D
S113106873212043616E63696F6E657320646973CD
S10F1078706F6E69626C65733A200A00A8
S9030000FC
